{
  "address": "0x072c2b3f3937aD47Da25dE0de1e36E4C366d5FED",
  "abi": [
    {
      "inputs": [
        {
          "internalType": "address",
          "name": "_tTrust",
          "type": "address"
        },
        {
          "internalType": "address",
          "name": "_oracle",
          "type": "address"
        }
      ],
      "stateMutability": "nonpayable",
      "type": "constructor"
    },
    {
      "inputs": [
        {
          "internalType": "address",
          "name": "target",
          "type": "address"
        }
      ],
      "name": "AddressEmptyCode",
      "type": "error"
    },
    {
      "inputs": [
        {
          "internalType": "address",
          "name": "account",
          "type": "address"
        }
      ],
      "name": "AddressInsufficientBalance",
      "type": "error"
    },
    {
      "inputs": [
        {
          "internalType": "address",
          "name": "spender",
          "type": "address"
        },
        {
          "internalType": "uint256",
          "name": "allowance",
          "type": "uint256"
        },
        {
          "internalType": "uint256",
          "name": "needed",
          "type": "uint256"
        }
      ],
      "name": "ERC20InsufficientAllowance",
      "type": "error"
    },
    {
      "inputs": [
        {
          "internalType": "address",
          "name": "sender",
          "type": "address"
        },
        {
          "internalType": "uint256",
          "name": "balance",
          "type": "uint256"
        },
        {
          "internalType": "uint256",
          "name": "needed",
          "type": "uint256"
        }
      ],
      "name": "ERC20InsufficientBalance",
      "type": "error"
    },
    {
      "inputs": [
        {
          "internalType": "address",
          "name": "approver",
          "type": "address"
        }
      ],
      "name": "ERC20InvalidApprover",
      "type": "error"
    },
    {
      "inputs": [
        {
          "internalType": "address",
          "name": "receiver",
          "type": "address"
        }
      ],
      "name": "ERC20InvalidReceiver",
      "type": "error"
    },
    {
      "inputs": [
        {
          "internalType": "address",
          "name": "sender",
          "type": "address"
        }
      ],
      "name": "ERC20InvalidSender",
      "type": "error"
    },
    {
      "inputs": [
        {
          "internalType": "address",
          "name": "spender",
          "type": "address"
        }
      ],
      "name": "ERC20InvalidSpender",
      "type": "error"
    },
    {
      "inputs": [],
      "name": "EnforcedPause",
      "type": "error"
    },
    {
      "inputs": [],
      "name": "ExpectedPause",
      "type": "error"
    },
    {
      "inputs": [],
      "name": "FailedInnerCall",
      "type": "error"
    },
    {
      "inputs": [
        {
          "internalType": "address",
          "name": "owner",
          "type": "address"
        }
      ],
      "name": "OwnableInvalidOwner",
      "type": "error"
    },
    {
      "inputs": [
        {
          "internalType": "address",
          "name": "account",
          "type": "address"
        }
      ],
      "name": "OwnableUnauthorizedAccount",
      "type": "error"
    },
    {
      "inputs": [],
      "name": "ReentrancyGuardReentrantCall",
      "type": "error"
    },
    {
      "inputs": [
        {
          "internalType": "address",
          "name": "token",
          "type": "address"
        }
      ],
      "name": "SafeERC20FailedOperation",
      "type": "error"
    },
    {
      "anonymous": false,
      "inputs": [
        {
          "indexed": true,
          "internalType": "address",
          "name": "owner",
          "type": "address"
        },
        {
          "indexed": true,
          "internalType": "address",
          "name": "spender",
          "type": "address"
        },
        {
          "indexed": false,
          "internalType": "uint256",
          "name": "value",
          "type": "uint256"
        }
      ],
      "name": "Approval",
      "type": "event"
    },
    {
      "anonymous": false,
      "inputs": [
        {
          "indexed": true,
          "internalType": "address",
          "name": "provider",
          "type": "address"
        },
        {
          "indexed": false,
          "internalType": "uint256",
          "name": "tTrustAmount",
          "type": "uint256"
        },
        {
          "indexed": false,
          "internalType": "uint256",
          "name": "oracleAmount",
          "type": "uint256"
        },
        {
          "indexed": false,
          "internalType": "uint256",
          "name": "liquidity",
          "type": "uint256"
        }
      ],
      "name": "LiquidityAdded",
      "type": "event"
    },
    {
      "anonymous": false,
      "inputs": [
        {
          "indexed": true,
          "internalType": "address",
          "name": "provider",
          "type": "address"
        },
        {
          "indexed": false,
          "internalType": "uint256",
          "name": "tTrustAmount",
          "type": "uint256"
        },
        {
          "indexed": false,
          "internalType": "uint256",
          "name": "oracleAmount",
          "type": "uint256"
        },
        {
          "indexed": false,
          "internalType": "uint256",
          "name": "liquidity",
          "type": "uint256"
        }
      ],
      "name": "LiquidityRemoved",
      "type": "event"
    },
    {
      "anonymous": false,
      "inputs": [
        {
          "indexed": true,
          "internalType": "address",
          "name": "previousOwner",
          "type": "address"
        },
        {
          "indexed": true,
          "internalType": "address",
          "name": "newOwner",
          "type": "address"
        }
      ],
      "name": "OwnershipTransferred",
      "type": "event"
    },
    {
      "anonymous": false,
      "inputs": [
        {
          "indexed": false,
          "internalType": "address",
          "name": "account",
          "type": "address"
        }
      ],
      "name": "Paused",
      "type": "event"
    },
    {
      "anonymous": false,
      "inputs": [
        {
          "indexed": true,
          "internalType": "address",
          "name": "user",
          "type": "address"
        },
        {
          "indexed": true,
          "internalType": "address",
          "name": "tokenIn",
          "type": "address"
        },
        {
          "indexed": true,
          "internalType": "address",
          "name": "tokenOut",
          "type": "address"
        },
        {
          "indexed": false,
          "internalType": "uint256",
          "name": "amountIn",
          "type": "uint256"
        },
        {
          "indexed": false,
          "internalType": "uint256",
          "name": "amountOut",
          "type": "uint256"
        },
        {
          "indexed": false,
          "internalType": "uint256",
          "name": "fee",
          "type": "uint256"
        }
      ],
      "name": "Swap",
      "type": "event"
    },
    {
      "anonymous": false,
      "inputs": [
        {
          "indexed": true,
          "internalType": "address",
          "name": "from",
          "type": "address"
        },
        {
          "indexed": true,
          "internalType": "address",
          "name": "to",
          "type": "address"
        },
        {
          "indexed": false,
          "internalType": "uint256",
          "name": "value",
          "type": "uint256"
        }
      ],
      "name": "Transfer",
      "type": "event"
    },
    {
      "anonymous": false,
      "inputs": [
        {
          "indexed": false,
          "internalType": "address",
          "name": "account",
          "type": "address"
        }
      ],
      "name": "Unpaused",
      "type": "event"
    },
    {
      "inputs": [],
      "name": "BASIS_POINTS",
      "outputs": [
        {
          "internalType": "uint256",
          "name": "",
          "type": "uint256"
        }
      ],
      "stateMutability": "view",
      "type": "function"
    },
    {
      "inputs": [],
      "name": "FEE_RATE",
      "outputs": [
        {
          "internalType": "uint256",
          "name": "",
          "type": "uint256"
        }
      ],
      "stateMutability": "view",
      "type": "function"
    },
    {
      "inputs": [],
      "name": "MINIMUM_LIQUIDITY",
      "outputs": [
        {
          "internalType": "uint256",
          "name": "",
          "type": "uint256"
        }
      ],
      "stateMutability": "view",
      "type": "function"
    },
    {
      "inputs": [],
      "name": "ORACLE",
      "outputs": [
        {
          "internalType": "contract IERC20",
          "name": "",
          "type": "address"
        }
      ],
      "stateMutability": "view",
      "type": "function"
    },
    {
      "inputs": [
        {
          "internalType": "uint256",
          "name": "_tTrustAmount",
          "type": "uint256"
        },
        {
          "internalType": "uint256",
          "name": "_oracleAmount",
          "type": "uint256"
        }
      ],
      "name": "addLiquidity",
      "outputs": [
        {
          "internalType": "uint256",
          "name": "liquidity",
          "type": "uint256"
        }
      ],
      "stateMutability": "payable",
      "type": "function"
    },
    {
      "inputs": [
        {
          "internalType": "address",
          "name": "owner",
          "type": "address"
        },
        {
          "internalType": "address",
          "name": "spender",
          "type": "address"
        }
      ],
      "name": "allowance",
      "outputs": [
        {
          "internalType": "uint256",
          "name": "",
          "type": "uint256"
        }
      ],
      "stateMutability": "view",
      "type": "function"
    },
    {
      "inputs": [
        {
          "internalType": "address",
          "name": "spender",
          "type": "address"
        },
        {
          "internalType": "uint256",
          "name": "value",
          "type": "uint256"
        }
      ],
      "name": "approve",
      "outputs": [
        {
          "internalType": "bool",
          "name": "",
          "type": "bool"
        }
      ],
      "stateMutability": "nonpayable",
      "type": "function"
    },
    {
      "inputs": [
        {
          "internalType": "address",
          "name": "account",
          "type": "address"
        }
      ],
      "name": "balanceOf",
      "outputs": [
        {
          "internalType": "uint256",
          "name": "",
          "type": "uint256"
        }
      ],
      "stateMutability": "view",
      "type": "function"
    },
    {
      "inputs": [],
      "name": "decimals",
      "outputs": [
        {
          "internalType": "uint8",
          "name": "",
          "type": "uint8"
        }
      ],
      "stateMutability": "view",
      "type": "function"
    },
    {
      "inputs": [
        {
          "internalType": "address",
          "name": "_token",
          "type": "address"
        },
        {
          "internalType": "uint256",
          "name": "_amount",
          "type": "uint256"
        }
      ],
      "name": "emergencyWithdraw",
      "outputs": [],
      "stateMutability": "nonpayable",
      "type": "function"
    },
    {
      "inputs": [
        {
          "internalType": "address",
          "name": "_tokenIn",
          "type": "address"
        },
        {
          "internalType": "uint256",
          "name": "_amountIn",
          "type": "uint256"
        }
      ],
      "name": "getAmountOut",
      "outputs": [
        {
          "internalType": "uint256",
          "name": "amountOut",
          "type": "uint256"
        }
      ],
      "stateMutability": "view",
      "type": "function"
    },
    {
      "inputs": [],
      "name": "getDEXStats",
      "outputs": [
        {
          "internalType": "uint256",
          "name": "_tTrustReserve",
          "type": "uint256"
        },
        {
          "internalType": "uint256",
          "name": "_oracleReserve",
          "type": "uint256"
        },
        {
          "internalType": "uint256",
          "name": "_totalVolume",
          "type": "uint256"
        },
        {
          "internalType": "uint256",
          "name": "_totalTrades",
          "type": "uint256"
        },
        {
          "internalType": "uint256",
          "name": "_totalLiquidity",
          "type": "uint256"
        }
      ],
      "stateMutability": "view",
      "type": "function"
    },
    {
      "inputs": [
        {
          "internalType": "address",
          "name": "_token",
          "type": "address"
        }
      ],
      "name": "getPrice",
      "outputs": [
        {
          "internalType": "uint256",
          "name": "price",
          "type": "uint256"
        }
      ],
      "stateMutability": "view",
      "type": "function"
    },
    {
      "inputs": [],
      "name": "kLast",
      "outputs": [
        {
          "internalType": "uint256",
          "name": "",
          "type": "uint256"
        }
      ],
      "stateMutability": "view",
      "type": "function"
    },
    {
      "inputs": [],
      "name": "name",
      "outputs": [
        {
          "internalType": "string",
          "name": "",
          "type": "string"
        }
      ],
      "stateMutability": "view",
      "type": "function"
    },
    {
      "inputs": [],
      "name": "oracleReserve",
      "outputs": [
        {
          "internalType": "uint256",
          "name": "",
          "type": "uint256"
        }
      ],
      "stateMutability": "view",
      "type": "function"
    },
    {
      "inputs": [],
      "name": "owner",
      "outputs": [
        {
          "internalType": "address",
          "name": "",
          "type": "address"
        }
      ],
      "stateMutability": "view",
      "type": "function"
    },
    {
      "inputs": [],
      "name": "pause",
      "outputs": [],
      "stateMutability": "nonpayable",
      "type": "function"
    },
    {
      "inputs": [],
      "name": "paused",
      "outputs": [
        {
          "internalType": "bool",
          "name": "",
          "type": "bool"
        }
      ],
      "stateMutability": "view",
      "type": "function"
    },
    {
      "inputs": [
        {
          "internalType": "uint256",
          "name": "_liquidity",
          "type": "uint256"
        },
        {
          "internalType": "uint256",
          "name": "_minTTrust",
          "type": "uint256"
        },
        {
          "internalType": "uint256",
          "name": "_minOracle",
          "type": "uint256"
        }
      ],
      "name": "removeLiquidity",
      "outputs": [
        {
          "internalType": "uint256",
          "name": "tTrustAmount",
          "type": "uint256"
        },
        {
          "internalType": "uint256",
          "name": "oracleAmount",
          "type": "uint256"
        }
      ],
      "stateMutability": "nonpayable",
      "type": "function"
    },
    {
      "inputs": [],
      "name": "renounceOwnership",
      "outputs": [],
      "stateMutability": "nonpayable",
      "type": "function"
    },
    {
      "inputs": [
        {
          "internalType": "uint256",
          "name": "_amountIn",
          "type": "uint256"
        },
        {
          "internalType": "uint256",
          "name": "_minAmountOut",
          "type": "uint256"
        }
      ],
      "name": "swapOracleForTrust",
      "outputs": [],
      "stateMutability": "nonpayable",
      "type": "function"
    },
    {
      "inputs": [
        {
          "internalType": "uint256",
          "name": "_amountIn",
          "type": "uint256"
        },
        {
          "internalType": "uint256",
          "name": "_minAmountOut",
          "type": "uint256"
        }
      ],
      "name": "swapTrustForOracle",
      "outputs": [],
      "stateMutability": "payable",
      "type": "function"
    },
    {
      "inputs": [],
      "name": "symbol",
      "outputs": [
        {
          "internalType": "string",
          "name": "",
          "type": "string"
        }
      ],
      "stateMutability": "view",
      "type": "function"
    },
    {
      "inputs": [],
      "name": "tTRUST",
      "outputs": [
        {
          "internalType": "contract IERC20",
          "name": "",
          "type": "address"
        }
      ],
      "stateMutability": "view",
      "type": "function"
    },
    {
      "inputs": [],
      "name": "tTrustReserve",
      "outputs": [
        {
          "internalType": "uint256",
          "name": "",
          "type": "uint256"
        }
      ],
      "stateMutability": "view",
      "type": "function"
    },
    {
      "inputs": [],
      "name": "totalSupply",
      "outputs": [
        {
          "internalType": "uint256",
          "name": "",
          "type": "uint256"
        }
      ],
      "stateMutability": "view",
      "type": "function"
    },
    {
      "inputs": [],
      "name": "totalTrades",
      "outputs": [
        {
          "internalType": "uint256",
          "name": "",
          "type": "uint256"
        }
      ],
      "stateMutability": "view",
      "type": "function"
    },
    {
      "inputs": [],
      "name": "totalVolume",
      "outputs": [
        {
          "internalType": "uint256",
          "name": "",
          "type": "uint256"
        }
      ],
      "stateMutability": "view",
      "type": "function"
    },
    {
      "inputs": [
        {
          "internalType": "address",
          "name": "to",
          "type": "address"
        },
        {
          "internalType": "uint256",
          "name": "value",
          "type": "uint256"
        }
      ],
      "name": "transfer",
      "outputs": [
        {
          "internalType": "bool",
          "name": "",
          "type": "bool"
        }
      ],
      "stateMutability": "nonpayable",
      "type": "function"
    },
    {
      "inputs": [
        {
          "internalType": "address",
          "name": "from",
          "type": "address"
        },
        {
          "internalType": "address",
          "name": "to",
          "type": "address"
        },
        {
          "internalType": "uint256",
          "name": "value",
          "type": "uint256"
        }
      ],
      "name": "transferFrom",
      "outputs": [
        {
          "internalType": "bool",
          "name": "",
          "type": "bool"
        }
      ],
      "stateMutability": "nonpayable",
      "type": "function"
    },
    {
      "inputs": [
        {
          "internalType": "address",
          "name": "newOwner",
          "type": "address"
        }
      ],
      "name": "transferOwnership",
      "outputs": [],
      "stateMutability": "nonpayable",
      "type": "function"
    },
    {
      "inputs": [],
      "name": "unpause",
      "outputs": [],
      "stateMutability": "nonpayable",
      "type": "function"
    },
    {
      "stateMutability": "payable",
      "type": "receive"
    }
  ],
  "transactionHash": "0x9b112e4e23980b2b945be7d4fc815945317adcfc86562ed016ba085bf0bb989e",
  "args": [
    "0x0000000000000000000000000000000000000000",
    "0xF840731096FAeD511eFda466ACaD39531101fBAc"
  ],
  "numDeployments": 1,
  "solcInputHash": "6f2cd31f69a379ef176fbb8f94f11dd7",
  "bytecode": "0x60c06040523480156200001157600080fd5b5060405162002824380380620028248339810160408190526200003491620001c4565b336040518060400160405280600d81526020016c04f7261636c6520444558204c5609c1b8152506040518060400160405280600381526020016204f4c560ec1b8152508160039081620000889190620002a1565b506004620000978282620002a1565b5050506001600160a01b038116620000ca57604051631e4fbdf760e01b8152600060048201526024015b60405180910390fd5b620000d58162000155565b5060016006556007805460ff191690556001600160a01b0381166200013d5760405162461bcd60e51b815260206004820152601c60248201527f496e76616c6964204f5241434c4520746f6b656e2061646472657373000000006044820152606401620000c1565b6001600160a01b039182166080521660a0526200036d565b600580546001600160a01b038381166001600160a01b0319831681179093556040519116919082907f8be0079c531659141344cd1fd0a4f28419497f9722a3daafe3b4186f6b6457e090600090a35050565b80516001600160a01b0381168114620001bf57600080fd5b919050565b60008060408385031215620001d857600080fd5b620001e383620001a7565b9150620001f360208401620001a7565b90509250929050565b634e487b7160e01b600052604160045260246000fd5b600181811c908216806200022757607f821691505b6020821081036200024857634e487b7160e01b600052602260045260246000fd5b50919050565b601f8211156200029c57600081815260208120601f850160051c81016020861015620002775750805b601f850160051c820191505b81811015620002985782815560010162000283565b5050505b505050565b81516001600160401b03811115620002bd57620002bd620001fc565b620002d581620002ce845462000212565b846200024e565b602080601f8311600181146200030d5760008415620002f45750858301515b600019600386901b1c1916600185901b17855562000298565b600085815260208120601f198616915b828110156200033e578886015182559484019460019091019084016200031d565b50858210156200035d5787850151600019600388901b60f8161c191681555b5050505050600190811b01905550565b60805160a0516123f0620004346000396000818161032e0152818161079401528181610b9401528181610d6201528181610e2f01528181611023015281816113360152818161140b0152818161180e01526118ef0152600081816104f0015281816107590152818161085a01528181610a9001528181610b6001528181610c7b01528181610dfa015281816111480152818161121801528181611312015281816113d0015281816114e8015281816115fc015281816116ae015261191301526123f06000f3fe6080604052600436106101f25760003560e01c80638456cb591161010d578063a9059cbb116100a0578063dd62ed3e1161006f578063dd62ed3e1461059e578063e1f1c4a7146105e4578063e275c997146105fa578063f2fde38b14610610578063f8fec5621461063057600080fd5b8063a9059cbb14610532578063ba9a7a5614610552578063ca706bcf14610568578063da6648a81461058857600080fd5b806395d89b41116100dc57806395d89b41146104b65780639cd441da146104cb578063a7be29ba146104de578063a80978871461051257600080fd5b80638456cb591461042e578063857620e1146104435780638da5cb5b1461047857806395ccea671461049657600080fd5b806338013f02116101855780635f81a57c116101545780635f81a57c146103b757806370a08231146103cd578063715018a6146104035780637464fc3d1461041857600080fd5b806338013f021461031c5780633f4ba83a1461036857806341976e091461037f5780635c975abb1461039f57600080fd5b806323b872dd116101c157806323b872dd1461028e5780632bd0429b146102ae5780632d11c58a146102eb578063313ce5671461030057600080fd5b806306fdde03146101fe578063095ea7b31461022957806318160ddd146102595780631baddaa31461027857600080fd5b366101f957005b600080fd5b34801561020a57600080fd5b50610213610643565b6040516102209190612120565b60405180910390f35b34801561023557600080fd5b5061024961024436600461216a565b6106d5565b6040519015158152602001610220565b34801561026557600080fd5b506002545b604051908152602001610220565b34801561028457600080fd5b5061026a60085481565b34801561029a57600080fd5b506102496102a9366004612194565b6106ef565b3480156102ba57600080fd5b506102c3610715565b604080519586526020860194909452928401919091526060830152608082015260a001610220565b3480156102f757600080fd5b5061026a601e81565b34801561030c57600080fd5b5060405160128152602001610220565b34801561032857600080fd5b506103507f000000000000000000000000000000000000000000000000000000000000000081565b6040516001600160a01b039091168152602001610220565b34801561037457600080fd5b5061037d610743565b005b34801561038b57600080fd5b5061026a61039a3660046121d0565b610755565b3480156103ab57600080fd5b5060075460ff16610249565b3480156103c357600080fd5b5061026a600a5481565b3480156103d957600080fd5b5061026a6103e83660046121d0565b6001600160a01b031660009081526020819052604090205490565b34801561040f57600080fd5b5061037d6108d0565b34801561042457600080fd5b5061026a600c5481565b34801561043a57600080fd5b5061037d6108e2565b34801561044f57600080fd5b5061046361045e3660046121eb565b6108f2565b60408051928352602083019190915201610220565b34801561048457600080fd5b506005546001600160a01b0316610350565b3480156104a257600080fd5b5061037d6104b136600461216a565b610c24565b3480156104c257600080fd5b50610213610c56565b61026a6104d9366004612217565b610c65565b3480156104ea57600080fd5b506103507f000000000000000000000000000000000000000000000000000000000000000081565b34801561051e57600080fd5b5061037d61052d366004612217565b610fb6565b34801561053e57600080fd5b5061024961054d36600461216a565b6113be565b34801561055e57600080fd5b5061026a6103e881565b34801561057457600080fd5b5061026a61058336600461216a565b6113cc565b34801561059457600080fd5b5061026a60095481565b3480156105aa57600080fd5b5061026a6105b9366004612239565b6001600160a01b03918216600090815260016020908152604080832093909416825291909152205490565b3480156105f057600080fd5b5061026a61271081565b34801561060657600080fd5b5061026a600b5481565b34801561061c57600080fd5b5061037d61062b3660046121d0565b6115aa565b61037d61063e366004612217565b6115e8565b6060600380546106529061226c565b80601f016020809104026020016040519081016040528092919081815260200182805461067e9061226c565b80156106cb5780601f106106a0576101008083540402835291602001916106cb565b820191906000526020600020905b8154815290600101906020018083116106ae57829003601f168201915b5050505050905090565b6000336106e381858561199c565b60019150505b92915050565b6000336106fd8582856119ae565b610708858585611a2c565b60019150505b9392505050565b6000806000806000600854600954600a54600b5461073260025490565b945094509450945094509091929394565b61074b611a8b565b610753611ab8565b565b60007f00000000000000000000000000000000000000000000000000000000000000006001600160a01b0316826001600160a01b031614806107c857507f00000000000000000000000000000000000000000000000000000000000000006001600160a01b0316826001600160a01b0316145b6108095760405162461bcd60e51b815260206004820152600d60248201526c24b73b30b634b2103a37b5b2b760991b60448201526064015b60405180910390fd5b600060085411801561081d57506000600954115b6108585760405162461bcd60e51b815260206004820152600c60248201526b4e6f206c697175696469747960a01b6044820152606401610800565b7f00000000000000000000000000000000000000000000000000000000000000006001600160a01b0316826001600160a01b0316036108b3576008546009546108a990670de0b6b3a76400006122b6565b6106e991906122cd565b6009546008546108a990670de0b6b3a76400006122b6565b919050565b6108d8611a8b565b6107536000611b0a565b6108ea611a8b565b610753611b5c565b6000806108fd611b99565b6000851161091d5760405162461bcd60e51b8152600401610800906122ef565b336000908152602081905260409020548511156109755760405162461bcd60e51b8152602060048201526016602482015275496e73756666696369656e74204c5020746f6b656e7360501b6044820152606401610800565b600061098060025490565b9050806008548761099191906122b6565b61099b91906122cd565b925080600954876109ac91906122b6565b6109b691906122cd565b91508483101580156109c85750838210155b610a0a5760405162461bcd60e51b8152602060048201526013602482015272125b9cdd59999a58da595b9d081bdd5d1c1d5d606a1b6044820152606401610800565b6008548311158015610a1e57506009548211155b610a625760405162461bcd60e51b8152602060048201526015602482015274496e73756666696369656e7420726573657276657360581b6044820152606401610800565b610a6c3387611bc3565b82600854610a7a919061231f565b600855600954610a8b90839061231f565b6009557f00000000000000000000000000000000000000000000000000000000000000006001600160a01b0316610b5357604051600090339085908381818185875af1925050503d8060008114610afe576040519150601f19603f3d011682016040523d82523d6000602084013e610b03565b606091505b5050905080610b4d5760405162461bcd60e51b81526020600482015260166024820152751515149554d5081d1c985b9cd9995c8819985a5b195960521b6044820152606401610800565b50610b87565b610b876001600160a01b037f0000000000000000000000000000000000000000000000000000000000000000163385611bf9565b610bbb6001600160a01b037f0000000000000000000000000000000000000000000000000000000000000000163384611bf9565b600954600854610bcb91906122b6565b600c55604080518481526020810184905290810187905233907f1dc8bb69df2b8e91fbdcbfcf93d951b3f0000f085a95fe3f7946d6161439245d9060600160405180910390a250610c1c6001600655565b935093915050565b610c2c611a8b565b610c52610c416005546001600160a01b031690565b6001600160a01b0384169083611bf9565b5050565b6060600480546106529061226c565b6000610c6f611b99565b610c77611c58565b60007f00000000000000000000000000000000000000000000000000000000000000006001600160a01b0316610d8f5760003411610cf75760405162461bcd60e51b815260206004820181905260248201527f4d7573742073656e6420545452555354206173206e617469766520746f6b656e6044820152606401610800565b60008311610d535760405162461bcd60e51b8152602060048201526024808201527f4f5241434c4520616d6f756e74206d75737420626520677265617465722074686044820152630616e20360e41b6064820152608401610800565b5034610d8a6001600160a01b037f000000000000000000000000000000000000000000000000000000000000000016333086611c7c565b610e57565b600084118015610d9f5750600083115b610deb5760405162461bcd60e51b815260206004820152601e60248201527f416d6f756e7473206d7573742062652067726561746572207468616e203000006044820152606401610800565b5082610e226001600160a01b037f000000000000000000000000000000000000000000000000000000000000000016333084611c7c565b610e576001600160a01b037f000000000000000000000000000000000000000000000000000000000000000016333086611c7c565b6000610e6260025490565b905080600003610e9f576103e8610e81610e7c86856122b6565b611cb5565b610e8b919061231f565b9250610e9a60016103e8611d24565b610ed9565b600854610ed690610eb083856122b6565b610eba91906122cd565b600954610ec784886122b6565b610ed191906122cd565b611d5a565b92505b60008311610f295760405162461bcd60e51b815260206004820152601d60248201527f496e73756666696369656e74206c6971756964697479206d696e7465640000006044820152606401610800565b610f333384611d24565b81600854610f419190612332565b600855600954610f52908590612332565b6009819055600854610f6491906122b6565b600c55604080518381526020810186905290810184905233907f64b83944e79c3ce8d4c297411de637c3e102d064677aac0c163976ebdcd6f50e9060600160405180910390a250506106e96001600655565b610fbe611b99565b610fc6611c58565b60008211610fe65760405162461bcd60e51b815260040161080090612345565b6000600854118015610ffa57506000600954115b6110165760405162461bcd60e51b8152600401610800906122ef565b61104b6001600160a01b037f000000000000000000000000000000000000000000000000000000000000000016333085611c7c565b600061105a601e61271061231f565b61106490846122b6565b905060006008548261107691906122b6565b905060008261271060095461108b91906122b6565b6110959190612332565b905060006110a382846122cd565b9050848110156110f55760405162461bcd60e51b815260206004820152601a60248201527f496e73756666696369656e74206f757470757420616d6f756e740000000000006044820152606401610800565b60085481106111465760405162461bcd60e51b815260206004820152601d60248201527f496e73756666696369656e7420745452555354206c69717569646974790000006044820152606401610800565b7f00000000000000000000000000000000000000000000000000000000000000006001600160a01b031661120b57604051600090339083908381818185875af1925050503d80600081146111b6576040519150601f19603f3d011682016040523d82523d6000602084013e6111bb565b606091505b50509050806112055760405162461bcd60e51b81526020600482015260166024820152751515149554d5081d1c985b9cd9995c8819985a5b195960521b6044820152606401610800565b5061123f565b61123f6001600160a01b037f0000000000000000000000000000000000000000000000000000000000000000163383611bf9565b8560095461124d9190612332565b60095560085461125e90829061231f565b60088190556009549061127190886122b6565b61127b91906122cd565b600a546112889190612332565b600a55600b54611299906001612332565b600b55600c546009546008546112af91906122b6565b10156112f55760405162461bcd60e51b8152602060048201526015602482015274259034b73b30b934b0b73a103b34b7b630ba34b7b760591b6044820152606401610800565b60095460085461130591906122b6565b600c556001600160a01b037f00000000000000000000000000000000000000000000000000000000000000008116907f000000000000000000000000000000000000000000000000000000000000000016337fd6d34547c69c5ee3d2667625c188acf1006abb93e0ee7cf03925c67cf77604138985612710611388601e846122b6565b61139291906122cd565b6040805193845260208401929092529082015260600160405180910390a450505050610c526001600655565b6000336106e3818585611a2c565b60007f00000000000000000000000000000000000000000000000000000000000000006001600160a01b0316836001600160a01b0316148061143f57507f00000000000000000000000000000000000000000000000000000000000000006001600160a01b0316836001600160a01b0316145b61147b5760405162461bcd60e51b815260206004820152600d60248201526c24b73b30b634b2103a37b5b2b760991b6044820152606401610800565b6000821161149b5760405162461bcd60e51b815260040161080090612345565b60006008541180156114af57506000600954115b6114cb5760405162461bcd60e51b8152600401610800906122ef565b60006114da601e61271061231f565b6114e490846122b6565b90507f00000000000000000000000000000000000000000000000000000000000000006001600160a01b0316846001600160a01b0316036115635760006009548261152f91906122b6565b905060008261271060085461154491906122b6565b61154e9190612332565b905061155a81836122cd565b935050506115a3565b60006008548261157391906122b6565b905060008261271060095461158891906122b6565b6115929190612332565b905061159e81836122cd565b935050505b5092915050565b6115b2611a8b565b6001600160a01b0381166115dc57604051631e4fbdf760e01b815260006004820152602401610800565b6115e581611b0a565b50565b6115f0611b99565b6115f8611c58565b60007f00000000000000000000000000000000000000000000000000000000000000006001600160a01b031661167f57600034116116785760405162461bcd60e51b815260206004820181905260248201527f4d7573742073656e6420545452555354206173206e617469766520746f6b656e6044820152606401610800565b50346116d6565b6000831161169f5760405162461bcd60e51b815260040161080090612345565b50816116d66001600160a01b037f000000000000000000000000000000000000000000000000000000000000000016333084611c7c565b60006008541180156116ea57506000600954115b6117065760405162461bcd60e51b8152600401610800906122ef565b6000611715601e61271061231f565b61171f90836122b6565b905060006009548261173191906122b6565b905060008261271060085461174691906122b6565b6117509190612332565b9050600061175e82846122cd565b9050858110156117b05760405162461bcd60e51b815260206004820152601a60248201527f496e73756666696369656e74206f757470757420616d6f756e740000000000006044820152606401610800565b60095481106118015760405162461bcd60e51b815260206004820152601d60248201527f496e73756666696369656e74204f5241434c45206c69717569646974790000006044820152606401610800565b6118356001600160a01b037f0000000000000000000000000000000000000000000000000000000000000000163383611bf9565b846008546118439190612332565b60085560095461185490829061231f565b600955600a54611865908690612332565b600a55600b54611876906001612332565b600b55600c5460095460085461188c91906122b6565b10156118d25760405162461bcd60e51b8152602060048201526015602482015274259034b73b30b934b0b73a103b34b7b630ba34b7b760591b6044820152606401610800565b6009546008546118e291906122b6565b600c556001600160a01b037f00000000000000000000000000000000000000000000000000000000000000008116907f000000000000000000000000000000000000000000000000000000000000000016337fd6d34547c69c5ee3d2667625c188acf1006abb93e0ee7cf03925c67cf77604138885612710611965601e846122b6565b61196f91906122cd565b6040805193845260208401929092529082015260600160405180910390a45050505050610c526001600655565b6119a98383836001611d70565b505050565b6001600160a01b038381166000908152600160209081526040808320938616835292905220546000198114611a265781811015611a1757604051637dc7a0d960e11b81526001600160a01b03841660048201526024810182905260448101839052606401610800565b611a2684848484036000611d70565b50505050565b6001600160a01b038316611a5657604051634b637e8f60e11b815260006004820152602401610800565b6001600160a01b038216611a805760405163ec442f0560e01b815260006004820152602401610800565b6119a9838383611e45565b6005546001600160a01b031633146107535760405163118cdaa760e01b8152336004820152602401610800565b611ac0611f6f565b6007805460ff191690557f5db9ee0a495bf2e6ff9c91a7834c1ba4fdd244a5e8aa4e537bd38aeae4b073aa335b6040516001600160a01b03909116815260200160405180910390a1565b600580546001600160a01b038381166001600160a01b0319831681179093556040519116919082907f8be0079c531659141344cd1fd0a4f28419497f9722a3daafe3b4186f6b6457e090600090a35050565b611b64611c58565b6007805460ff191660011790557f62e78cea01bee320cd4e420270b5ea74000d11b0c9f74754ebdbfc544b05a258611aed3390565b600260065403611bbc57604051633ee5aeb560e01b815260040160405180910390fd5b6002600655565b6001600160a01b038216611bed57604051634b637e8f60e11b815260006004820152602401610800565b610c5282600083611e45565b6040516001600160a01b038381166024830152604482018390526119a991859182169063a9059cbb906064015b604051602081830303815290604052915060e01b6020820180516001600160e01b038381831617835250505050611f92565b60075460ff16156107535760405163d93c066560e01b815260040160405180910390fd5b6040516001600160a01b038481166024830152838116604483015260648201839052611a269186918216906323b872dd90608401611c26565b60006003821115611d165750806000611ccf6002836122cd565b611cda906001612332565b90505b81811015611d1057905080600281611cf581866122cd565b611cff9190612332565b611d0991906122cd565b9050611cdd565b50919050565b81156108cb57506001919050565b6001600160a01b038216611d4e5760405163ec442f0560e01b815260006004820152602401610800565b610c5260008383611e45565b6000818310611d69578161070e565b5090919050565b6001600160a01b038416611d9a5760405163e602df0560e01b815260006004820152602401610800565b6001600160a01b038316611dc457604051634a1406b160e11b815260006004820152602401610800565b6001600160a01b0380851660009081526001602090815260408083209387168352929052208290558015611a2657826001600160a01b0316846001600160a01b03167f8c5be1e5ebec7d5bd14f71427d1e84f3dd0314c0f7b2291e5b200ac8c7c3b92584604051611e3791815260200190565b60405180910390a350505050565b6001600160a01b038316611e70578060026000828254611e659190612332565b90915550611ee29050565b6001600160a01b03831660009081526020819052604090205481811015611ec35760405163391434e360e21b81526001600160a01b03851660048201526024810182905260448101839052606401610800565b6001600160a01b03841660009081526020819052604090209082900390555b6001600160a01b038216611efe57600280548290039055611f1d565b6001600160a01b03821660009081526020819052604090208054820190555b816001600160a01b0316836001600160a01b03167fddf252ad1be2c89b69c2b068fc378daa952ba7f163c4a11628f55a4df523b3ef83604051611f6291815260200190565b60405180910390a3505050565b60075460ff1661075357604051638dfc202b60e01b815260040160405180910390fd5b6000611fa76001600160a01b03841683611ff5565b90508051600014158015611fcc575080806020019051810190611fca919061237c565b155b156119a957604051635274afe760e01b81526001600160a01b0384166004820152602401610800565b606061070e8383600084600080856001600160a01b0316848660405161201b919061239e565b60006040518083038185875af1925050503d8060008114612058576040519150601f19603f3d011682016040523d82523d6000602084013e61205d565b606091505b509150915061206d868383612077565b9695505050505050565b60608261208c57612087826120d3565b61070e565b81511580156120a357506001600160a01b0384163b155b156120cc57604051639996b31560e01b81526001600160a01b0385166004820152602401610800565b508061070e565b8051156120e35780518082602001fd5b604051630a12f52160e11b815260040160405180910390fd5b60005b838110156121175781810151838201526020016120ff565b50506000910152565b602081526000825180602084015261213f8160408501602087016120fc565b601f01601f19169190910160400192915050565b80356001600160a01b03811681146108cb57600080fd5b6000806040838503121561217d57600080fd5b61218683612153565b946020939093013593505050565b6000806000606084860312156121a957600080fd5b6121b284612153565b92506121c060208501612153565b9150604084013590509250925092565b6000602082840312156121e257600080fd5b61070e82612153565b60008060006060848603121561220057600080fd5b505081359360208301359350604090920135919050565b6000806040838503121561222a57600080fd5b50508035926020909101359150565b6000806040838503121561224c57600080fd5b61225583612153565b915061226360208401612153565b90509250929050565b600181811c9082168061228057607f821691505b602082108103611d1057634e487b7160e01b600052602260045260246000fd5b634e487b7160e01b600052601160045260246000fd5b80820281158282048414176106e9576106e96122a0565b6000826122ea57634e487b7160e01b600052601260045260246000fd5b500490565b602080825260169082015275496e73756666696369656e74206c697175696469747960501b604082015260600190565b818103818111156106e9576106e96122a0565b808201808211156106e9576106e96122a0565b6020808252601d908201527f416d6f756e74206d7573742062652067726561746572207468616e2030000000604082015260600190565b60006020828403121561238e57600080fd5b8151801515811461070e57600080fd5b600082516123b08184602087016120fc565b919091019291505056fea2646970667358221220fe461b459f5a121412564141b6da81549d0877130cf5e667587682ce7502952464736f6c63430008140033",
  "devdoc": {
    "details": "Automated Market Maker (AMM) for tTRUST and ORACLE tokens",
    "errors": {
      "AddressEmptyCode(address)": [
        {
          "details": "There's no code at `target` (it is not a contract)."
        }
      ],
      "AddressInsufficientBalance(address)": [
        {
          "details": "The ETH balance of the account is not enough to perform the operation."
        }
      ],
      "ERC20InsufficientAllowance(address,uint256,uint256)": [
        {
          "details": "Indicates a failure with the `spender`s `allowance`. Used in transfers.",
          "params": {
            "allowance": "Amount of tokens a `spender` is allowed to operate with.",
            "needed": "Minimum amount required to perform a transfer.",
            "spender": "Address that may be allowed to operate on tokens without being their owner."
          }
        }
      ],
      "ERC20InsufficientBalance(address,uint256,uint256)": [
        {
          "details": "Indicates an error related to the current `balance` of a `sender`. Used in transfers.",
          "params": {
            "balance": "Current balance for the interacting account.",
            "needed": "Minimum amount required to perform a transfer.",
            "sender": "Address whose tokens are being transferred."
          }
        }
      ],
      "ERC20InvalidApprover(address)": [
        {
          "details": "Indicates a failure with the `approver` of a token to be approved. Used in approvals.",
          "params": {
            "approver": "Address initiating an approval operation."
          }
        }
      ],
      "ERC20InvalidReceiver(address)": [
        {
          "details": "Indicates a failure with the token `receiver`. Used in transfers.",
          "params": {
            "receiver": "Address to which tokens are being transferred."
          }
        }
      ],
      "ERC20InvalidSender(address)": [
        {
          "details": "Indicates a failure with the token `sender`. Used in transfers.",
          "params": {
            "sender": "Address whose tokens are being transferred."
          }
        }
      ],
      "ERC20InvalidSpender(address)": [
        {
          "details": "Indicates a failure with the `spender` to be approved. Used in approvals.",
          "params": {
            "spender": "Address that may be allowed to operate on tokens without being their owner."
          }
        }
      ],
      "EnforcedPause()": [
        {
          "details": "The operation failed because the contract is paused."
        }
      ],
      "ExpectedPause()": [
        {
          "details": "The operation failed because the contract is not paused."
        }
      ],
      "FailedInnerCall()": [
        {
          "details": "A call to an address target failed. The target may have reverted."
        }
      ],
      "OwnableInvalidOwner(address)": [
        {
          "details": "The owner is not a valid owner account. (eg. `address(0)`)"
        }
      ],
      "OwnableUnauthorizedAccount(address)": [
        {
          "details": "The caller account is not authorized to perform an operation."
        }
      ],
      "ReentrancyGuardReentrantCall()": [
        {
          "details": "Unauthorized reentrant call."
        }
      ],
      "SafeERC20FailedOperation(address)": [
        {
          "details": "An operation with an ERC20 token failed."
        }
      ]
    },
    "events": {
      "Approval(address,address,uint256)": {
        "details": "Emitted when the allowance of a `spender` for an `owner` is set by a call to {approve}. `value` is the new allowance."
      },
      "Paused(address)": {
        "details": "Emitted when the pause is triggered by `account`."
      },
      "Transfer(address,address,uint256)": {
        "details": "Emitted when `value` tokens are moved from one account (`from`) to another (`to`). Note that `value` may be zero."
      },
      "Unpaused(address)": {
        "details": "Emitted when the pause is lifted by `account`."
      }
    },
    "kind": "dev",
    "methods": {
      "addLiquidity(uint256,uint256)": {
        "details": "Add liquidity to the pool - ALLOWS ANY RATIO for first provision",
        "params": {
          "_oracleAmount": "Amount of ORACLE tokens to add",
          "_tTrustAmount": "Amount of tTRUST tokens to add (use 0 when sending ETH)"
        },
        "returns": {
          "liquidity": "LP tokens minted"
        }
      },
      "allowance(address,address)": {
        "details": "See {IERC20-allowance}."
      },
      "approve(address,uint256)": {
        "details": "See {IERC20-approve}. NOTE: If `value` is the maximum `uint256`, the allowance is not updated on `transferFrom`. This is semantically equivalent to an infinite approval. Requirements: - `spender` cannot be the zero address."
      },
      "balanceOf(address)": {
        "details": "See {IERC20-balanceOf}."
      },
      "constructor": {
        "details": "Constructor",
        "params": {
          "_oracle": "Address of ORACLE token",
          "_tTrust": "Address of tTRUST token (use ORACLE address for ETH testing)"
        }
      },
      "decimals()": {
        "details": "Returns the number of decimals used to get its user representation. For example, if `decimals` equals `2`, a balance of `505` tokens should be displayed to a user as `5.05` (`505 / 10 ** 2`). Tokens usually opt for a value of 18, imitating the relationship between Ether and Wei. This is the default value returned by this function, unless it's overridden. NOTE: This information is only used for _display_ purposes: it in no way affects any of the arithmetic of the contract, including {IERC20-balanceOf} and {IERC20-transfer}."
      },
      "emergencyWithdraw(address,uint256)": {
        "details": "Emergency withdrawal function (only in extreme cases)",
        "params": {
          "_amount": "Amount to withdraw",
          "_token": "Token address to withdraw"
        }
      },
      "getAmountOut(address,uint256)": {
        "details": "Get swap quote for exact input",
        "params": {
          "_amountIn": "Input amount",
          "_tokenIn": "Input token address"
        },
        "returns": {
          "amountOut": "Output amount after fees"
        }
      },
      "getDEXStats()": {
        "details": "Get DEX statistics"
      },
      "getPrice(address)": {
        "details": "Get current price of token in terms of the other token",
        "params": {
          "_token": "Token to get price for"
        },
        "returns": {
          "price": "Price in 18 decimal places"
        }
      },
      "name()": {
        "details": "Returns the name of the token."
      },
      "owner()": {
        "details": "Returns the address of the current owner."
      },
      "pause()": {
        "details": "Pause trading"
      },
      "paused()": {
        "details": "Returns true if the contract is paused, and false otherwise."
      },
      "removeLiquidity(uint256,uint256,uint256)": {
        "details": "Remove liquidity from the pool",
        "params": {
          "_liquidity": "Amount of LP tokens to burn",
          "_minOracle": "Minimum ORACLE to receive",
          "_minTTrust": "Minimum tTRUST to receive"
        },
        "returns": {
          "oracleAmount": "Amount of ORACLE returned",
          "tTrustAmount": "Amount of tTRUST returned"
        }
      },
      "renounceOwnership()": {
        "details": "Leaves the contract without owner. It will not be possible to call `onlyOwner` functions. Can only be called by the current owner. NOTE: Renouncing ownership will leave the contract without an owner, thereby disabling any functionality that is only available to the owner."
      },
      "swapOracleForTrust(uint256,uint256)": {
        "details": "Swap ORACLE for tTRUST - NO LIMITS!",
        "params": {
          "_amountIn": "Amount of ORACLE to swap",
          "_minAmountOut": "Minimum amount of tTRUST to receive"
        }
      },
      "swapTrustForOracle(uint256,uint256)": {
        "details": "Swap tTRUST for ORACLE - NO LIMITS!",
        "params": {
          "_amountIn": "Amount of tTRUST to swap (use 0 when sending ETH)",
          "_minAmountOut": "Minimum amount of ORACLE to receive"
        }
      },
      "symbol()": {
        "details": "Returns the symbol of the token, usually a shorter version of the name."
      },
      "totalSupply()": {
        "details": "See {IERC20-totalSupply}."
      },
      "transfer(address,uint256)": {
        "details": "See {IERC20-transfer}. Requirements: - `to` cannot be the zero address. - the caller must have a balance of at least `value`."
      },
      "transferFrom(address,address,uint256)": {
        "details": "See {IERC20-transferFrom}. Emits an {Approval} event indicating the updated allowance. This is not required by the EIP. See the note at the beginning of {ERC20}. NOTE: Does not update the allowance if the current allowance is the maximum `uint256`. Requirements: - `from` and `to` cannot be the zero address. - `from` must have a balance of at least `value`. - the caller must have allowance for ``from``'s tokens of at least `value`."
      },
      "transferOwnership(address)": {
        "details": "Transfers ownership of the contract to a new account (`newOwner`). Can only be called by the current owner."
      },
      "unpause()": {
        "details": "Resume trading"
      }
    },
    "title": "DEX",
    "version": 1
  },
  "userdoc": {
    "kind": "user",
    "methods": {},
    "notice": "Uses constant product formula (x * y = k) for free market price discovery",
    "version": 1
  },
  "storageLayout": {
    "storage": [
      {
        "astId": 307,
        "contract": "contracts/DEX.sol:DEX",
        "label": "_balances",
        "offset": 0,
        "slot": "0",
        "type": "t_mapping(t_address,t_uint256)"
      },
      {
        "astId": 313,
        "contract": "contracts/DEX.sol:DEX",
        "label": "_allowances",
        "offset": 0,
        "slot": "1",
        "type": "t_mapping(t_address,t_mapping(t_address,t_uint256))"
      },
      {
        "astId": 315,
        "contract": "contracts/DEX.sol:DEX",
        "label": "_totalSupply",
        "offset": 0,
        "slot": "2",
        "type": "t_uint256"
      },
      {
        "astId": 317,
        "contract": "contracts/DEX.sol:DEX",
        "label": "_name",
        "offset": 0,
        "slot": "3",
        "type": "t_string_storage"
      },
      {
        "astId": 319,
        "contract": "contracts/DEX.sol:DEX",
        "label": "_symbol",
        "offset": 0,
        "slot": "4",
        "type": "t_string_storage"
      },
      {
        "astId": 8,
        "contract": "contracts/DEX.sol:DEX",
        "label": "_owner",
        "offset": 0,
        "slot": "5",
        "type": "t_address"
      },
      {
        "astId": 1640,
        "contract": "contracts/DEX.sol:DEX",
        "label": "_status",
        "offset": 0,
        "slot": "6",
        "type": "t_uint256"
      },
      {
        "astId": 1521,
        "contract": "contracts/DEX.sol:DEX",
        "label": "_paused",
        "offset": 0,
        "slot": "7",
        "type": "t_bool"
      },
      {
        "astId": 1736,
        "contract": "contracts/DEX.sol:DEX",
        "label": "tTrustReserve",
        "offset": 0,
        "slot": "8",
        "type": "t_uint256"
      },
      {
        "astId": 1738,
        "contract": "contracts/DEX.sol:DEX",
        "label": "oracleReserve",
        "offset": 0,
        "slot": "9",
        "type": "t_uint256"
      },
      {
        "astId": 1740,
        "contract": "contracts/DEX.sol:DEX",
        "label": "totalVolume",
        "offset": 0,
        "slot": "10",
        "type": "t_uint256"
      },
      {
        "astId": 1742,
        "contract": "contracts/DEX.sol:DEX",
        "label": "totalTrades",
        "offset": 0,
        "slot": "11",
        "type": "t_uint256"
      },
      {
        "astId": 1744,
        "contract": "contracts/DEX.sol:DEX",
        "label": "kLast",
        "offset": 0,
        "slot": "12",
        "type": "t_uint256"
      }
    ],
    "types": {
      "t_address": {
        "encoding": "inplace",
        "label": "address",
        "numberOfBytes": "20"
      },
      "t_bool": {
        "encoding": "inplace",
        "label": "bool",
        "numberOfBytes": "1"
      },
      "t_mapping(t_address,t_mapping(t_address,t_uint256))": {
        "encoding": "mapping",
        "key": "t_address",
        "label": "mapping(address => mapping(address => uint256))",
        "numberOfBytes": "32",
        "value": "t_mapping(t_address,t_uint256)"
      },
      "t_mapping(t_address,t_uint256)": {
        "encoding": "mapping",
        "key": "t_address",
        "label": "mapping(address => uint256)",
        "numberOfBytes": "32",
        "value": "t_uint256"
      },
      "t_string_storage": {
        "encoding": "bytes",
        "label": "string",
        "numberOfBytes": "32"
      },
      "t_uint256": {
        "encoding": "inplace",
        "label": "uint256",
        "numberOfBytes": "32"
      }
    }
  }
}