{
  "address": "0x59D61CbD345836C2243323123595023F90aD9b1E",
  "abi": [
    {
      "inputs": [],
      "stateMutability": "nonpayable",
      "type": "constructor"
    },
    {
      "inputs": [
        {
          "internalType": "address",
          "name": "target",
          "type": "address"
        }
      ],
      "name": "AddressEmptyCode",
      "type": "error"
    },
    {
      "inputs": [
        {
          "internalType": "address",
          "name": "account",
          "type": "address"
        }
      ],
      "name": "AddressInsufficientBalance",
      "type": "error"
    },
    {
      "inputs": [],
      "name": "EnforcedPause",
      "type": "error"
    },
    {
      "inputs": [],
      "name": "ExpectedPause",
      "type": "error"
    },
    {
      "inputs": [],
      "name": "FailedInnerCall",
      "type": "error"
    },
    {
      "inputs": [
        {
          "internalType": "address",
          "name": "owner",
          "type": "address"
        }
      ],
      "name": "OwnableInvalidOwner",
      "type": "error"
    },
    {
      "inputs": [
        {
          "internalType": "address",
          "name": "account",
          "type": "address"
        }
      ],
      "name": "OwnableUnauthorizedAccount",
      "type": "error"
    },
    {
      "inputs": [],
      "name": "ReentrancyGuardReentrantCall",
      "type": "error"
    },
    {
      "inputs": [
        {
          "internalType": "address",
          "name": "token",
          "type": "address"
        }
      ],
      "name": "SafeERC20FailedOperation",
      "type": "error"
    },
    {
      "anonymous": false,
      "inputs": [
        {
          "indexed": true,
          "internalType": "address",
          "name": "user",
          "type": "address"
        },
        {
          "indexed": true,
          "internalType": "address",
          "name": "token",
          "type": "address"
        },
        {
          "indexed": false,
          "internalType": "uint256",
          "name": "amount",
          "type": "uint256"
        }
      ],
      "name": "Borrow",
      "type": "event"
    },
    {
      "anonymous": false,
      "inputs": [
        {
          "indexed": true,
          "internalType": "address",
          "name": "liquidator",
          "type": "address"
        },
        {
          "indexed": true,
          "internalType": "address",
          "name": "borrower",
          "type": "address"
        },
        {
          "indexed": true,
          "internalType": "address",
          "name": "tokenCollateral",
          "type": "address"
        },
        {
          "indexed": false,
          "internalType": "address",
          "name": "tokenBorrowed",
          "type": "address"
        },
        {
          "indexed": false,
          "internalType": "uint256",
          "name": "amountCollateral",
          "type": "uint256"
        },
        {
          "indexed": false,
          "internalType": "uint256",
          "name": "amountBorrowed",
          "type": "uint256"
        }
      ],
      "name": "Liquidation",
      "type": "event"
    },
    {
      "anonymous": false,
      "inputs": [
        {
          "indexed": true,
          "internalType": "address",
          "name": "token",
          "type": "address"
        },
        {
          "indexed": false,
          "internalType": "uint256",
          "name": "supplyRate",
          "type": "uint256"
        },
        {
          "indexed": false,
          "internalType": "uint256",
          "name": "borrowRate",
          "type": "uint256"
        }
      ],
      "name": "MarketAdded",
      "type": "event"
    },
    {
      "anonymous": false,
      "inputs": [
        {
          "indexed": true,
          "internalType": "address",
          "name": "previousOwner",
          "type": "address"
        },
        {
          "indexed": true,
          "internalType": "address",
          "name": "newOwner",
          "type": "address"
        }
      ],
      "name": "OwnershipTransferred",
      "type": "event"
    },
    {
      "anonymous": false,
      "inputs": [
        {
          "indexed": false,
          "internalType": "address",
          "name": "account",
          "type": "address"
        }
      ],
      "name": "Paused",
      "type": "event"
    },
    {
      "anonymous": false,
      "inputs": [
        {
          "indexed": true,
          "internalType": "address",
          "name": "user",
          "type": "address"
        },
        {
          "indexed": true,
          "internalType": "address",
          "name": "token",
          "type": "address"
        },
        {
          "indexed": false,
          "internalType": "uint256",
          "name": "amount",
          "type": "uint256"
        }
      ],
      "name": "Repay",
      "type": "event"
    },
    {
      "anonymous": false,
      "inputs": [
        {
          "indexed": true,
          "internalType": "address",
          "name": "user",
          "type": "address"
        },
        {
          "indexed": true,
          "internalType": "address",
          "name": "token",
          "type": "address"
        },
        {
          "indexed": false,
          "internalType": "uint256",
          "name": "amount",
          "type": "uint256"
        }
      ],
      "name": "Supply",
      "type": "event"
    },
    {
      "anonymous": false,
      "inputs": [
        {
          "indexed": false,
          "internalType": "address",
          "name": "account",
          "type": "address"
        }
      ],
      "name": "Unpaused",
      "type": "event"
    },
    {
      "anonymous": false,
      "inputs": [
        {
          "indexed": true,
          "internalType": "address",
          "name": "user",
          "type": "address"
        },
        {
          "indexed": true,
          "internalType": "address",
          "name": "token",
          "type": "address"
        },
        {
          "indexed": false,
          "internalType": "uint256",
          "name": "amount",
          "type": "uint256"
        }
      ],
      "name": "Withdraw",
      "type": "event"
    },
    {
      "inputs": [],
      "name": "BASIS_POINTS",
      "outputs": [
        {
          "internalType": "uint256",
          "name": "",
          "type": "uint256"
        }
      ],
      "stateMutability": "view",
      "type": "function"
    },
    {
      "inputs": [],
      "name": "LIQUIDATION_BONUS",
      "outputs": [
        {
          "internalType": "uint256",
          "name": "",
          "type": "uint256"
        }
      ],
      "stateMutability": "view",
      "type": "function"
    },
    {
      "inputs": [],
      "name": "SECONDS_PER_YEAR",
      "outputs": [
        {
          "internalType": "uint256",
          "name": "",
          "type": "uint256"
        }
      ],
      "stateMutability": "view",
      "type": "function"
    },
    {
      "inputs": [
        {
          "internalType": "address",
          "name": "_token",
          "type": "address"
        },
        {
          "internalType": "uint256",
          "name": "_supplyRate",
          "type": "uint256"
        },
        {
          "internalType": "uint256",
          "name": "_borrowRate",
          "type": "uint256"
        },
        {
          "internalType": "uint256",
          "name": "_collateralFactor",
          "type": "uint256"
        }
      ],
      "name": "addMarket",
      "outputs": [],
      "stateMutability": "nonpayable",
      "type": "function"
    },
    {
      "inputs": [
        {
          "internalType": "uint256",
          "name": "",
          "type": "uint256"
        }
      ],
      "name": "allMarkets",
      "outputs": [
        {
          "internalType": "address",
          "name": "",
          "type": "address"
        }
      ],
      "stateMutability": "view",
      "type": "function"
    },
    {
      "inputs": [
        {
          "internalType": "address",
          "name": "_token",
          "type": "address"
        },
        {
          "internalType": "uint256",
          "name": "_amount",
          "type": "uint256"
        }
      ],
      "name": "borrow",
      "outputs": [],
      "stateMutability": "nonpayable",
      "type": "function"
    },
    {
      "inputs": [
        {
          "internalType": "address",
          "name": "_token",
          "type": "address"
        },
        {
          "internalType": "uint256",
          "name": "_amount",
          "type": "uint256"
        }
      ],
      "name": "emergencyWithdraw",
      "outputs": [],
      "stateMutability": "nonpayable",
      "type": "function"
    },
    {
      "inputs": [],
      "name": "getAllMarkets",
      "outputs": [
        {
          "internalType": "address[]",
          "name": "",
          "type": "address[]"
        }
      ],
      "stateMutability": "view",
      "type": "function"
    },
    {
      "inputs": [
        {
          "internalType": "address",
          "name": "_user",
          "type": "address"
        }
      ],
      "name": "getBorrowPower",
      "outputs": [
        {
          "internalType": "uint256",
          "name": "",
          "type": "uint256"
        }
      ],
      "stateMutability": "view",
      "type": "function"
    },
    {
      "inputs": [
        {
          "internalType": "address",
          "name": "_user",
          "type": "address"
        }
      ],
      "name": "getHealthFactor",
      "outputs": [
        {
          "internalType": "uint256",
          "name": "",
          "type": "uint256"
        }
      ],
      "stateMutability": "view",
      "type": "function"
    },
    {
      "inputs": [
        {
          "internalType": "address",
          "name": "_user",
          "type": "address"
        }
      ],
      "name": "getTotalBorrowValue",
      "outputs": [
        {
          "internalType": "uint256",
          "name": "",
          "type": "uint256"
        }
      ],
      "stateMutability": "view",
      "type": "function"
    },
    {
      "inputs": [
        {
          "internalType": "address",
          "name": "_user",
          "type": "address"
        },
        {
          "internalType": "address",
          "name": "_token",
          "type": "address"
        }
      ],
      "name": "getUserAccount",
      "outputs": [
        {
          "internalType": "uint256",
          "name": "supplied",
          "type": "uint256"
        },
        {
          "internalType": "uint256",
          "name": "borrowed",
          "type": "uint256"
        }
      ],
      "stateMutability": "view",
      "type": "function"
    },
    {
      "inputs": [
        {
          "internalType": "address",
          "name": "_token",
          "type": "address"
        }
      ],
      "name": "getUtilizationRate",
      "outputs": [
        {
          "internalType": "uint256",
          "name": "",
          "type": "uint256"
        }
      ],
      "stateMutability": "view",
      "type": "function"
    },
    {
      "inputs": [
        {
          "internalType": "address",
          "name": "_borrower",
          "type": "address"
        },
        {
          "internalType": "address",
          "name": "_tokenCollateral",
          "type": "address"
        },
        {
          "internalType": "address",
          "name": "_tokenBorrowed",
          "type": "address"
        },
        {
          "internalType": "uint256",
          "name": "_amount",
          "type": "uint256"
        }
      ],
      "name": "liquidate",
      "outputs": [],
      "stateMutability": "nonpayable",
      "type": "function"
    },
    {
      "inputs": [
        {
          "internalType": "address",
          "name": "",
          "type": "address"
        }
      ],
      "name": "marketExists",
      "outputs": [
        {
          "internalType": "bool",
          "name": "",
          "type": "bool"
        }
      ],
      "stateMutability": "view",
      "type": "function"
    },
    {
      "inputs": [
        {
          "internalType": "address",
          "name": "",
          "type": "address"
        }
      ],
      "name": "markets",
      "outputs": [
        {
          "internalType": "contract IERC20",
          "name": "token",
          "type": "address"
        },
        {
          "internalType": "uint256",
          "name": "totalSupply",
          "type": "uint256"
        },
        {
          "internalType": "uint256",
          "name": "totalBorrow",
          "type": "uint256"
        },
        {
          "internalType": "uint256",
          "name": "supplyRate",
          "type": "uint256"
        },
        {
          "internalType": "uint256",
          "name": "borrowRate",
          "type": "uint256"
        },
        {
          "internalType": "uint256",
          "name": "collateralFactor",
          "type": "uint256"
        },
        {
          "internalType": "uint256",
          "name": "liquidationThreshold",
          "type": "uint256"
        },
        {
          "internalType": "bool",
          "name": "isActive",
          "type": "bool"
        }
      ],
      "stateMutability": "view",
      "type": "function"
    },
    {
      "inputs": [],
      "name": "owner",
      "outputs": [
        {
          "internalType": "address",
          "name": "",
          "type": "address"
        }
      ],
      "stateMutability": "view",
      "type": "function"
    },
    {
      "inputs": [],
      "name": "pause",
      "outputs": [],
      "stateMutability": "nonpayable",
      "type": "function"
    },
    {
      "inputs": [],
      "name": "paused",
      "outputs": [
        {
          "internalType": "bool",
          "name": "",
          "type": "bool"
        }
      ],
      "stateMutability": "view",
      "type": "function"
    },
    {
      "inputs": [],
      "name": "renounceOwnership",
      "outputs": [],
      "stateMutability": "nonpayable",
      "type": "function"
    },
    {
      "inputs": [
        {
          "internalType": "address",
          "name": "_token",
          "type": "address"
        },
        {
          "internalType": "uint256",
          "name": "_amount",
          "type": "uint256"
        }
      ],
      "name": "repay",
      "outputs": [],
      "stateMutability": "nonpayable",
      "type": "function"
    },
    {
      "inputs": [
        {
          "internalType": "address",
          "name": "_token",
          "type": "address"
        },
        {
          "internalType": "uint256",
          "name": "_amount",
          "type": "uint256"
        }
      ],
      "name": "supply",
      "outputs": [],
      "stateMutability": "nonpayable",
      "type": "function"
    },
    {
      "inputs": [
        {
          "internalType": "address",
          "name": "newOwner",
          "type": "address"
        }
      ],
      "name": "transferOwnership",
      "outputs": [],
      "stateMutability": "nonpayable",
      "type": "function"
    },
    {
      "inputs": [],
      "name": "unpause",
      "outputs": [],
      "stateMutability": "nonpayable",
      "type": "function"
    },
    {
      "inputs": [
        {
          "internalType": "address",
          "name": "_token",
          "type": "address"
        },
        {
          "internalType": "uint256",
          "name": "_supplyRate",
          "type": "uint256"
        },
        {
          "internalType": "uint256",
          "name": "_borrowRate",
          "type": "uint256"
        },
        {
          "internalType": "uint256",
          "name": "_collateralFactor",
          "type": "uint256"
        },
        {
          "internalType": "bool",
          "name": "_isActive",
          "type": "bool"
        }
      ],
      "name": "updateMarket",
      "outputs": [],
      "stateMutability": "nonpayable",
      "type": "function"
    },
    {
      "inputs": [
        {
          "internalType": "address",
          "name": "_token",
          "type": "address"
        },
        {
          "internalType": "uint256",
          "name": "_amount",
          "type": "uint256"
        }
      ],
      "name": "withdraw",
      "outputs": [],
      "stateMutability": "nonpayable",
      "type": "function"
    }
  ],
  "transactionHash": "0x16f08693ad49fd94f35ff8e597a246de43e19ddcb8771681a31e365ca0e5637a",
  "args": [],
  "numDeployments": 1,
  "solcInputHash": "b9ef2773204e7894a700a9e1b7c45074",
  "bytecode": "0x608060405234801561001057600080fd5b50338061003757604051631e4fbdf760e01b81526000600482015260240160405180910390fd5b61004081610054565b50600180556002805460ff191690556100a4565b600080546001600160a01b038381166001600160a01b0319831681178455604051919092169283917f8be0079c531659141344cd1fd0a4f28419497f9722a3daafe3b4186f6b6457e09190a35050565b611ff0806100b36000396000f3fe608060405234801561001057600080fd5b506004361061018e5760003560e01c806395ccea67116100de578063e21f0b5511610097578063f2b9fdb811610071578063f2b9fdb814610417578063f2fde38b1461042a578063f3fef3a31461043d578063fe6bcd7c1461045057600080fd5b8063e21f0b55146103e6578063e6a69ab8146103f9578063eb4e51e01461040457600080fd5b806395ccea6714610333578063a9de20b714610346578063aab3f86814610359578063b0772d0b1461036c578063ccf1a4b214610381578063e1f1c4a7146103dd57600080fd5b80636310af741161014b5780637b6aa8bd116101255780637b6aa8bd1461025f5780638456cb59146102725780638da5cb5b1461027a5780638e8f294b1461028b57600080fd5b80636310af7414610221578063712ca01814610234578063715018a61461025757600080fd5b806322867d78146101935780633574d4c4146101a85780633f4ba83a146101c45780634b8a3529146101cc57806352d84d1e146101df5780635c975abb1461020a575b600080fd5b6101a66101a1366004611c87565b610463565b005b6101b16101f481565b6040519081526020015b60405180910390f35b6101a661064a565b6101a66101da366004611c87565b61065c565b6101f26101ed366004611cb1565b610945565b6040516001600160a01b0390911681526020016101bb565b60025460ff165b60405190151581526020016101bb565b6101a661022f366004611cca565b61096f565b610211610242366004611d03565b60056020526000908152604090205460ff1681565b6101a6610c45565b6101b161026d366004611d03565b610c57565b6101a6610cab565b6000546001600160a01b03166101f2565b6102ec610299366004611d03565b6003602081905260009182526040909120805460018201546002830154938301546004840154600585015460068601546007909601546001600160a01b0390951696939593949293919290919060ff1688565b604080516001600160a01b0390991689526020890197909752958701949094526060860192909252608085015260a084015260c0830152151560e0820152610100016101bb565b6101a6610341366004611c87565b610cbb565b6101a6610354366004611d2c565b610ce9565b6101a6610367366004611d80565b610dcf565b61037461117e565b6040516101bb9190611dcb565b6103c861038f366004611e18565b6001600160a01b039182166000908152600460209081526040808320939094168252828152838220546001909301905291909120549091565b604080519283526020830191909152016101bb565b6101b161271081565b6101b16103f4366004611d03565b6111e0565b6101b16301e1338081565b6101b1610412366004611d03565b61129e565b6101a6610425366004611c87565b61131e565b6101a6610438366004611d03565b6114db565b6101a661044b366004611c87565b611519565b6101b161045e366004611d03565b611764565b61046b6117ca565b6104736117f4565b6001600160a01b03821660009081526005602052604090205460ff166104b45760405162461bcd60e51b81526004016104ab90611e4b565b60405180910390fd5b600081116104d45760405162461bcd60e51b81526004016104ab90611e7a565b3360009081526004602090815260408083206001600160a01b038616845260018101909252909120548061053d5760405162461bcd60e51b815260206004820152601060248201526f4e6f206465627420746f20726570617960801b60448201526064016104ab565b3360009081526004602090815260408083206001600160a01b038816845260030190915281204290558184116105735783610575565b815b6001600160a01b0380871660009081526003602052604090205491925061059f9116333084611818565b6105a98183611ec7565b6001600160a01b03861660009081526001850160209081526040808320939093556003905220600201546105de908290611ec7565b6001600160a01b0386166000818152600360205260409081902060020192909255905133907f05f2eeda0e08e4b437f487c8d7d29b14537d15e3488170dc3de5dbdf8dac4684906106329085815260200190565b60405180910390a350505061064660018055565b5050565b61065261187f565b61065a6118ac565b565b6106646117ca565b61066c6117f4565b6001600160a01b03821660009081526005602052604090205460ff166106a45760405162461bcd60e51b81526004016104ab90611e4b565b600081116106c45760405162461bcd60e51b81526004016104ab90611e7a565b6001600160a01b0382166000908152600360205260409020600781015460ff166107275760405162461bcd60e51b81526020600482015260146024820152734d61726b6574206973206e6f742061637469766560601b60448201526064016104ab565b80546040516370a0823160e01b815230600482015283916001600160a01b0316906370a0823190602401602060405180830381865afa15801561076e573d6000803e3d6000fd5b505050506040513d601f19601f820116820180604052508101906107929190611eda565b10156107d95760405162461bcd60e51b8152602060048201526016602482015275496e73756666696369656e74206c697175696469747960501b60448201526064016104ab565b3360009081526004602090815260408083206001600160a01b03871684526003019091529020429055600061080d336111e0565b9050600061081a3361129e565b905060006108288583611ef3565b9050828111156108745760405162461bcd60e51b8152602060048201526017602482015276125b9cdd59999a58da595b9d0818dbdb1b185d195c985b604a1b60448201526064016104ab565b3360009081526004602090815260408083206001600160a01b038a1684526001019091529020546108a6908690611ef3565b3360009081526004602090815260408083206001600160a01b038b16845260010190915290205560028401546108dd908690611ef3565b600285015583546108f8906001600160a01b031633876118fe565b6040518581526001600160a01b0387169033907f312a5e5e1079f5dda4e95dbbd0b908b291fd5b992ef22073643ab691572c5b529060200160405180910390a35050505061064660018055565b6006818154811061095557600080fd5b6000918252602090912001546001600160a01b0316905081565b61097761187f565b6001600160a01b0384166109c55760405162461bcd60e51b8152602060048201526015602482015274496e76616c696420746f6b656e206164647265737360581b60448201526064016104ab565b6001600160a01b03841660009081526005602052604090205460ff1615610a265760405162461bcd60e51b81526020600482015260156024820152744d61726b657420616c72656164792065786973747360581b60448201526064016104ab565b612710811115610a745760405162461bcd60e51b815260206004820152601960248201527824b73b30b634b21031b7b63630ba32b930b6103330b1ba37b960391b60448201526064016104ab565b828211610ad75760405162461bcd60e51b815260206004820152602b60248201527f426f72726f772072617465206d75737420626520686967686572207468616e2060448201526a737570706c79207261746560a81b60648201526084016104ab565b604051806101000160405280856001600160a01b031681526020016000815260200160008152602001848152602001838152602001828152602001826103e8610b209190611ef3565b8152600160209182018190526001600160a01b038088166000818152600380865260408083208851815496166001600160a01b031996871617815588880151818801558882015160028201556060890151928101929092556080880151600483015560a088015160058084019190915560c089015160068085019190915560e0909901516007909301805493151560ff1994851617905590965285822080549091168517905585549384018655949094527ff652222313e28459528d920b65115c16c04f3efc82aaedc97be59f3f377c0d3f909101805490911683179055517faeb29651ee58d1f8216621256cf5fe5cdf5c1a7650175c620342e0eb03de0f8e90610c379086908690918252602082015260400190565b60405180910390a250505050565b610c4d61187f565b61065a6000611934565b6001600160a01b038116600090815260036020526040812060018101548203610c835750600092915050565b80600101546127108260020154610c9a9190611f06565b610ca49190611f1d565b9392505050565b610cb361187f565b61065a611984565b610cc361187f565b610646610cd86000546001600160a01b031690565b6001600160a01b03841690836118fe565b610cf161187f565b6001600160a01b03851660009081526005602052604090205460ff16610d295760405162461bcd60e51b81526004016104ab90611e4b565b612710821115610d775760405162461bcd60e51b815260206004820152601960248201527824b73b30b634b21031b7b63630ba32b930b6103330b1ba37b960391b60448201526064016104ab565b6001600160a01b03851660009081526003602081905260409091209081018590556004810184905560058101839055610db2836103e8611ef3565b6006820155600701805460ff191691151591909117905550505050565b610dd76117ca565b610ddf6117f4565b336001600160a01b03851603610e375760405162461bcd60e51b815260206004820152601960248201527f43616e6e6f74206c697175696461746520796f757273656c660000000000000060448201526064016104ab565b6001600160a01b03831660009081526005602052604090205460ff168015610e7757506001600160a01b03821660009081526005602052604090205460ff165b610eb55760405162461bcd60e51b815260206004820152600f60248201526e496e76616c6964206d61726b65747360881b60448201526064016104ab565b610ec38460008060006119c1565b15610f055760405162461bcd60e51b81526020600482015260126024820152714163636f756e74206973206865616c74687960701b60448201526064016104ab565b6001600160a01b03808516600090815260046020908152604080832093861683526001840190915290205480610f745760405162461bcd60e51b81526020600482015260146024820152734e6f206465627420746f206c697175696461746560601b60448201526064016104ab565b6000818411610f835783610f85565b815b90506000612710610f986101f482611ef3565b610fa29084611f06565b610fac9190611f1d565b6001600160a01b0388166000908152602086905260409020549091508111156110115760405162461bcd60e51b8152602060048201526017602482015276125b9cdd59999a58da595b9d0818dbdb1b185d195c985b604a1b60448201526064016104ab565b6001600160a01b038087166000908152600360205260409020546110389116333085611818565b6110428284611ec7565b6001600160a01b038088166000908152600187016020908152604080832094909455918a16815290869052205461107a908290611ec7565b6001600160a01b03808916600090815260208781526040808320949094559189168152600390915220600201546110b2908390611ec7565b6001600160a01b0380881660009081526003602052604080822060020193909355908916815220600101546110e8908290611ec7565b6001600160a01b03808916600090815260036020526040902060018101929092559054611117911633836118fe565b604080516001600160a01b03888116825260208201849052918101849052818916918a169033907f64f7c2c46814e079964a1934953e50adc025dc52cdbeb7d8e478e9fb9bfd2c2d9060600160405180910390a45050505061117860018055565b50505050565b606060068054806020026020016040519081016040528092919081815260200182805480156111d657602002820191906000526020600020905b81546001600160a01b031681526001909101906020018083116111b8575b5050505050905090565b600080805b6006548110156112975760006006828154811061120457611204611f3f565b60009182526020808320909101546001600160a01b038881168452600483526040808520919092168085529252909120549091508015611282576001600160a01b038216600090815260036020526040812060050154612710906112689084611f06565b6112729190611f1d565b905061127e8186611ef3565b9450505b5050808061128f90611f55565b9150506111e5565b5092915050565b600080805b600654811015611297576000600682815481106112c2576112c2611f3f565b60009182526020808320909101546001600160a01b03888116845260048352604080852091909216808552600191909101909252909120549091506113078185611ef3565b93505050808061131690611f55565b9150506112a3565b6113266117ca565b61132e6117f4565b6001600160a01b03821660009081526005602052604090205460ff166113665760405162461bcd60e51b81526004016104ab90611e4b565b600081116113865760405162461bcd60e51b81526004016104ab90611e7a565b6001600160a01b0382166000908152600360205260409020600781015460ff166113e95760405162461bcd60e51b81526020600482015260146024820152734d61726b6574206973206e6f742061637469766560601b60448201526064016104ab565b3360009081526004602090815260408083206001600160a01b038716845260020190915290204290558054611429906001600160a01b0316333085611818565b3360009081526004602090815260408083206001600160a01b0387168452909152902054611458908390611ef3565b3360009081526004602090815260408083206001600160a01b0388168452909152902055600181015461148c908390611ef3565b60018201556040518281526001600160a01b0384169033907fd1cf3d156d5f8f0d50f6c122ed609cec09d35c9b9fb3fff6ea0959134dae424e9060200160405180910390a35061064660018055565b6114e361187f565b6001600160a01b03811661150d57604051631e4fbdf760e01b8152600060048201526024016104ab565b61151681611934565b50565b6115216117ca565b6115296117f4565b6001600160a01b03821660009081526005602052604090205460ff166115615760405162461bcd60e51b81526004016104ab90611e4b565b600081116115815760405162461bcd60e51b81526004016104ab90611e7a565b3360009081526004602090815260408083206001600160a01b038616845291829052909120548211156115f65760405162461bcd60e51b815260206004820152601b60248201527f496e73756666696369656e7420737570706c792062616c616e6365000000000060448201526064016104ab565b3360009081526004602090815260408083206001600160a01b0387168452600201825280832042905590839052812054611631908490611ec7565b6001600160a01b03851660009081526020849052604090205490915061165c903390869084906119c1565b6116b85760405162461bcd60e51b815260206004820152602760248201527f5769746864726177616c20776f756c64206d616b65206163636f756e7420756e6044820152666865616c74687960c81b60648201526084016104ab565b6001600160a01b03841660009081526020838152604080832084905560039091529020600101546116ea908490611ec7565b6001600160a01b03808616600090815260036020526040902060018101929092559054611719911633856118fe565b6040518381526001600160a01b0385169033907f9b1bfa7fa9ee420a16e124f794c35ac9f90472acc99140eb2f6447c714cad8eb9060200160405180910390a3505061064660018055565b6000806117708361129e565b905080600003611784575060001992915050565b6000611d4c612710611795866111e0565b61179f9190611f06565b6117a99190611f1d565b9050816117b861271083611f06565b6117c29190611f1d565b949350505050565b6002600154036117ed57604051633ee5aeb560e01b815260040160405180910390fd5b6002600155565b60025460ff161561065a5760405163d93c066560e01b815260040160405180910390fd5b6040516001600160a01b0384811660248301528381166044830152606482018390526111789186918216906323b872dd906084015b604051602081830303815290604052915060e01b6020820180516001600160e01b038381831617835250505050611aac565b6000546001600160a01b0316331461065a5760405163118cdaa760e01b81523360048201526024016104ab565b6118b4611b0f565b6002805460ff191690557f5db9ee0a495bf2e6ff9c91a7834c1ba4fdd244a5e8aa4e537bd38aeae4b073aa335b6040516001600160a01b03909116815260200160405180910390a1565b6040516001600160a01b0383811660248301526044820183905261192f91859182169063a9059cbb9060640161184d565b505050565b600080546001600160a01b038381166001600160a01b0319831681178455604051919092169283917f8be0079c531659141344cd1fd0a4f28419497f9722a3daafe3b4186f6b6457e09190a35050565b61198c6117f4565b6002805460ff191660011790557f62e78cea01bee320cd4e420270b5ea74000d11b0c9f74754ebdbfc544b05a2586118e13390565b600080806119ce8761129e565b905060005b600654811015611aa0576000600682815481106119f2576119f2611f3f565b60009182526020822001546001600160a01b03908116925089168203611a19575086611a41565b506001600160a01b03808a166000908152600460209081526040808320938516835292905220545b8015611a8b576001600160a01b03821660009081526003602052604081206006015461271090611a719084611f06565b611a7b9190611f1d565b9050611a878187611ef3565b9550505b50508080611a9890611f55565b9150506119d3565b50111595945050505050565b6000611ac16001600160a01b03841683611b32565b90508051600014158015611ae6575080806020019051810190611ae49190611f6e565b155b1561192f57604051635274afe760e01b81526001600160a01b03841660048201526024016104ab565b60025460ff1661065a57604051638dfc202b60e01b815260040160405180910390fd5b6060611b4083836000611b49565b90505b92915050565b606081471015611b6e5760405163cd78605960e01b81523060048201526024016104ab565b600080856001600160a01b03168486604051611b8a9190611f8b565b60006040518083038185875af1925050503d8060008114611bc7576040519150601f19603f3d011682016040523d82523d6000602084013e611bcc565b606091505b5091509150611bdc868383611be6565b9695505050505050565b606082611bfb57611bf682611c42565b610ca4565b8151158015611c1257506001600160a01b0384163b155b15611c3b57604051639996b31560e01b81526001600160a01b03851660048201526024016104ab565b5080610ca4565b805115611c525780518082602001fd5b604051630a12f52160e11b815260040160405180910390fd5b80356001600160a01b0381168114611c8257600080fd5b919050565b60008060408385031215611c9a57600080fd5b611ca383611c6b565b946020939093013593505050565b600060208284031215611cc357600080fd5b5035919050565b60008060008060808587031215611ce057600080fd5b611ce985611c6b565b966020860135965060408601359560600135945092505050565b600060208284031215611d1557600080fd5b611b4082611c6b565b801515811461151657600080fd5b600080600080600060a08688031215611d4457600080fd5b611d4d86611c6b565b94506020860135935060408601359250606086013591506080860135611d7281611d1e565b809150509295509295909350565b60008060008060808587031215611d9657600080fd5b611d9f85611c6b565b9350611dad60208601611c6b565b9250611dbb60408601611c6b565b9396929550929360600135925050565b6020808252825182820181905260009190848201906040850190845b81811015611e0c5783516001600160a01b031683529284019291840191600101611de7565b50909695505050505050565b60008060408385031215611e2b57600080fd5b611e3483611c6b565b9150611e4260208401611c6b565b90509250929050565b60208082526015908201527413585c9ad95d08191bd95cc81b9bdd08195e1a5cdd605a1b604082015260600190565b6020808252601d908201527f416d6f756e74206d7573742062652067726561746572207468616e2030000000604082015260600190565b634e487b7160e01b600052601160045260246000fd5b81810381811115611b4357611b43611eb1565b600060208284031215611eec57600080fd5b5051919050565b80820180821115611b4357611b43611eb1565b8082028115828204841417611b4357611b43611eb1565b600082611f3a57634e487b7160e01b600052601260045260246000fd5b500490565b634e487b7160e01b600052603260045260246000fd5b600060018201611f6757611f67611eb1565b5060010190565b600060208284031215611f8057600080fd5b8151610ca481611d1e565b6000825160005b81811015611fac5760208186018101518583015201611f92565b50600092019182525091905056fea26469706673582212209a344b895744afb9552579b093c12ad8f4bc62c993ba7292e6d93b380f671f6d64736f6c63430008140033",
  "devdoc": {
    "details": "Decentralized lending and borrowing protocol on Intuition testnet",
    "errors": {
      "AddressEmptyCode(address)": [
        {
          "details": "There's no code at `target` (it is not a contract)."
        }
      ],
      "AddressInsufficientBalance(address)": [
        {
          "details": "The ETH balance of the account is not enough to perform the operation."
        }
      ],
      "EnforcedPause()": [
        {
          "details": "The operation failed because the contract is paused."
        }
      ],
      "ExpectedPause()": [
        {
          "details": "The operation failed because the contract is not paused."
        }
      ],
      "FailedInnerCall()": [
        {
          "details": "A call to an address target failed. The target may have reverted."
        }
      ],
      "OwnableInvalidOwner(address)": [
        {
          "details": "The owner is not a valid owner account. (eg. `address(0)`)"
        }
      ],
      "OwnableUnauthorizedAccount(address)": [
        {
          "details": "The caller account is not authorized to perform an operation."
        }
      ],
      "ReentrancyGuardReentrantCall()": [
        {
          "details": "Unauthorized reentrant call."
        }
      ],
      "SafeERC20FailedOperation(address)": [
        {
          "details": "An operation with an ERC20 token failed."
        }
      ]
    },
    "events": {
      "Paused(address)": {
        "details": "Emitted when the pause is triggered by `account`."
      },
      "Unpaused(address)": {
        "details": "Emitted when the pause is lifted by `account`."
      }
    },
    "kind": "dev",
    "methods": {
      "addMarket(address,uint256,uint256,uint256)": {
        "details": "Add a new lending market",
        "params": {
          "_borrowRate": "Borrow interest rate in basis points",
          "_collateralFactor": "Collateral factor in basis points",
          "_supplyRate": "Supply interest rate in basis points",
          "_token": "Token contract address"
        }
      },
      "borrow(address,uint256)": {
        "details": "Borrow tokens against collateral",
        "params": {
          "_amount": "Amount to borrow",
          "_token": "Token address to borrow"
        }
      },
      "emergencyWithdraw(address,uint256)": {
        "details": "Emergency withdrawal function for admin"
      },
      "getAllMarkets()": {
        "details": "Get all markets"
      },
      "getBorrowPower(address)": {
        "details": "Get user's borrow power (maximum amount they can borrow)"
      },
      "getHealthFactor(address)": {
        "details": "Get user's health factor (collateral value / borrow value)"
      },
      "getTotalBorrowValue(address)": {
        "details": "Get user's total borrow value"
      },
      "getUserAccount(address,address)": {
        "details": "Get user account info"
      },
      "getUtilizationRate(address)": {
        "details": "Get market utilization rate"
      },
      "liquidate(address,address,address,uint256)": {
        "details": "Liquidate an unhealthy account",
        "params": {
          "_amount": "Amount to repay",
          "_borrower": "Address of the borrower to liquidate",
          "_tokenBorrowed": "Token address of borrowed asset to repay",
          "_tokenCollateral": "Token address of collateral to seize"
        }
      },
      "owner()": {
        "details": "Returns the address of the current owner."
      },
      "pause()": {
        "details": "Pause the protocol"
      },
      "paused()": {
        "details": "Returns true if the contract is paused, and false otherwise."
      },
      "renounceOwnership()": {
        "details": "Leaves the contract without owner. It will not be possible to call `onlyOwner` functions. Can only be called by the current owner. NOTE: Renouncing ownership will leave the contract without an owner, thereby disabling any functionality that is only available to the owner."
      },
      "repay(address,uint256)": {
        "details": "Repay borrowed tokens",
        "params": {
          "_amount": "Amount to repay",
          "_token": "Token address to repay"
        }
      },
      "supply(address,uint256)": {
        "details": "Supply tokens to the lending pool",
        "params": {
          "_amount": "Amount to supply",
          "_token": "Token address to supply"
        }
      },
      "transferOwnership(address)": {
        "details": "Transfers ownership of the contract to a new account (`newOwner`). Can only be called by the current owner."
      },
      "unpause()": {
        "details": "Unpause the protocol"
      },
      "updateMarket(address,uint256,uint256,uint256,bool)": {
        "details": "Update market parameters"
      },
      "withdraw(address,uint256)": {
        "details": "Withdraw supplied tokens",
        "params": {
          "_amount": "Amount to withdraw",
          "_token": "Token address to withdraw"
        }
      }
    },
    "title": "OracleLend",
    "version": 1
  },
  "userdoc": {
    "kind": "user",
    "methods": {},
    "notice": "Allows users to supply assets to earn interest and borrow against collateral",
    "version": 1
  },
  "storageLayout": {
    "storage": [
      {
        "astId": 8,
        "contract": "contracts/OracleLend.sol:OracleLend",
        "label": "_owner",
        "offset": 0,
        "slot": "0",
        "type": "t_address"
      },
      {
        "astId": 962,
        "contract": "contracts/OracleLend.sol:OracleLend",
        "label": "_status",
        "offset": 0,
        "slot": "1",
        "type": "t_uint256"
      },
      {
        "astId": 843,
        "contract": "contracts/OracleLend.sol:OracleLend",
        "label": "_paused",
        "offset": 0,
        "slot": "2",
        "type": "t_bool"
      },
      {
        "astId": 1087,
        "contract": "contracts/OracleLend.sol:OracleLend",
        "label": "markets",
        "offset": 0,
        "slot": "3",
        "type": "t_mapping(t_address,t_struct(Market)1056_storage)"
      },
      {
        "astId": 1092,
        "contract": "contracts/OracleLend.sol:OracleLend",
        "label": "userAccounts",
        "offset": 0,
        "slot": "4",
        "type": "t_mapping(t_address,t_struct(UserAccount)1073_storage)"
      },
      {
        "astId": 1096,
        "contract": "contracts/OracleLend.sol:OracleLend",
        "label": "marketExists",
        "offset": 0,
        "slot": "5",
        "type": "t_mapping(t_address,t_bool)"
      },
      {
        "astId": 1099,
        "contract": "contracts/OracleLend.sol:OracleLend",
        "label": "allMarkets",
        "offset": 0,
        "slot": "6",
        "type": "t_array(t_address)dyn_storage"
      }
    ],
    "types": {
      "t_address": {
        "encoding": "inplace",
        "label": "address",
        "numberOfBytes": "20"
      },
      "t_array(t_address)dyn_storage": {
        "base": "t_address",
        "encoding": "dynamic_array",
        "label": "address[]",
        "numberOfBytes": "32"
      },
      "t_bool": {
        "encoding": "inplace",
        "label": "bool",
        "numberOfBytes": "1"
      },
      "t_contract(IERC20)225": {
        "encoding": "inplace",
        "label": "contract IERC20",
        "numberOfBytes": "20"
      },
      "t_mapping(t_address,t_bool)": {
        "encoding": "mapping",
        "key": "t_address",
        "label": "mapping(address => bool)",
        "numberOfBytes": "32",
        "value": "t_bool"
      },
      "t_mapping(t_address,t_struct(Market)1056_storage)": {
        "encoding": "mapping",
        "key": "t_address",
        "label": "mapping(address => struct OracleLend.Market)",
        "numberOfBytes": "32",
        "value": "t_struct(Market)1056_storage"
      },
      "t_mapping(t_address,t_struct(UserAccount)1073_storage)": {
        "encoding": "mapping",
        "key": "t_address",
        "label": "mapping(address => struct OracleLend.UserAccount)",
        "numberOfBytes": "32",
        "value": "t_struct(UserAccount)1073_storage"
      },
      "t_mapping(t_address,t_uint256)": {
        "encoding": "mapping",
        "key": "t_address",
        "label": "mapping(address => uint256)",
        "numberOfBytes": "32",
        "value": "t_uint256"
      },
      "t_struct(Market)1056_storage": {
        "encoding": "inplace",
        "label": "struct OracleLend.Market",
        "members": [
          {
            "astId": 1041,
            "contract": "contracts/OracleLend.sol:OracleLend",
            "label": "token",
            "offset": 0,
            "slot": "0",
            "type": "t_contract(IERC20)225"
          },
          {
            "astId": 1043,
            "contract": "contracts/OracleLend.sol:OracleLend",
            "label": "totalSupply",
            "offset": 0,
            "slot": "1",
            "type": "t_uint256"
          },
          {
            "astId": 1045,
            "contract": "contracts/OracleLend.sol:OracleLend",
            "label": "totalBorrow",
            "offset": 0,
            "slot": "2",
            "type": "t_uint256"
          },
          {
            "astId": 1047,
            "contract": "contracts/OracleLend.sol:OracleLend",
            "label": "supplyRate",
            "offset": 0,
            "slot": "3",
            "type": "t_uint256"
          },
          {
            "astId": 1049,
            "contract": "contracts/OracleLend.sol:OracleLend",
            "label": "borrowRate",
            "offset": 0,
            "slot": "4",
            "type": "t_uint256"
          },
          {
            "astId": 1051,
            "contract": "contracts/OracleLend.sol:OracleLend",
            "label": "collateralFactor",
            "offset": 0,
            "slot": "5",
            "type": "t_uint256"
          },
          {
            "astId": 1053,
            "contract": "contracts/OracleLend.sol:OracleLend",
            "label": "liquidationThreshold",
            "offset": 0,
            "slot": "6",
            "type": "t_uint256"
          },
          {
            "astId": 1055,
            "contract": "contracts/OracleLend.sol:OracleLend",
            "label": "isActive",
            "offset": 0,
            "slot": "7",
            "type": "t_bool"
          }
        ],
        "numberOfBytes": "256"
      },
      "t_struct(UserAccount)1073_storage": {
        "encoding": "inplace",
        "label": "struct OracleLend.UserAccount",
        "members": [
          {
            "astId": 1060,
            "contract": "contracts/OracleLend.sol:OracleLend",
            "label": "supplied",
            "offset": 0,
            "slot": "0",
            "type": "t_mapping(t_address,t_uint256)"
          },
          {
            "astId": 1064,
            "contract": "contracts/OracleLend.sol:OracleLend",
            "label": "borrowed",
            "offset": 0,
            "slot": "1",
            "type": "t_mapping(t_address,t_uint256)"
          },
          {
            "astId": 1068,
            "contract": "contracts/OracleLend.sol:OracleLend",
            "label": "supplyIndex",
            "offset": 0,
            "slot": "2",
            "type": "t_mapping(t_address,t_uint256)"
          },
          {
            "astId": 1072,
            "contract": "contracts/OracleLend.sol:OracleLend",
            "label": "borrowIndex",
            "offset": 0,
            "slot": "3",
            "type": "t_mapping(t_address,t_uint256)"
          }
        ],
        "numberOfBytes": "128"
      },
      "t_uint256": {
        "encoding": "inplace",
        "label": "uint256",
        "numberOfBytes": "32"
      }
    }
  }
}