{
  "address": "0x552948CC80f3D757E4c18a702F5DdD42a06E7039",
  "abi": [
    {
      "inputs": [
        {
          "internalType": "address",
          "name": "_dex",
          "type": "address"
        },
        {
          "internalType": "address",
          "name": "_oracleToken",
          "type": "address"
        }
      ],
      "stateMutability": "nonpayable",
      "type": "constructor"
    },
    {
      "inputs": [
        {
          "internalType": "address",
          "name": "target",
          "type": "address"
        }
      ],
      "name": "AddressEmptyCode",
      "type": "error"
    },
    {
      "inputs": [
        {
          "internalType": "address",
          "name": "account",
          "type": "address"
        }
      ],
      "name": "AddressInsufficientBalance",
      "type": "error"
    },
    {
      "inputs": [],
      "name": "EnforcedPause",
      "type": "error"
    },
    {
      "inputs": [],
      "name": "ExpectedPause",
      "type": "error"
    },
    {
      "inputs": [],
      "name": "FailedInnerCall",
      "type": "error"
    },
    {
      "inputs": [],
      "name": "OracleLend__BorrowingFailed",
      "type": "error"
    },
    {
      "inputs": [],
      "name": "OracleLend__InsufficientLiquidatorORACLE",
      "type": "error"
    },
    {
      "inputs": [],
      "name": "OracleLend__InvalidAmount",
      "type": "error"
    },
    {
      "inputs": [],
      "name": "OracleLend__NotLiquidatable",
      "type": "error"
    },
    {
      "inputs": [],
      "name": "OracleLend__RepayingFailed",
      "type": "error"
    },
    {
      "inputs": [],
      "name": "OracleLend__TransferFailed",
      "type": "error"
    },
    {
      "inputs": [],
      "name": "OracleLend__UnsafePositionRatio",
      "type": "error"
    },
    {
      "inputs": [
        {
          "internalType": "address",
          "name": "owner",
          "type": "address"
        }
      ],
      "name": "OwnableInvalidOwner",
      "type": "error"
    },
    {
      "inputs": [
        {
          "internalType": "address",
          "name": "account",
          "type": "address"
        }
      ],
      "name": "OwnableUnauthorizedAccount",
      "type": "error"
    },
    {
      "inputs": [],
      "name": "ReentrancyGuardReentrantCall",
      "type": "error"
    },
    {
      "inputs": [
        {
          "internalType": "address",
          "name": "token",
          "type": "address"
        }
      ],
      "name": "SafeERC20FailedOperation",
      "type": "error"
    },
    {
      "anonymous": false,
      "inputs": [
        {
          "indexed": true,
          "internalType": "address",
          "name": "user",
          "type": "address"
        },
        {
          "indexed": true,
          "internalType": "uint256",
          "name": "amount",
          "type": "uint256"
        },
        {
          "indexed": false,
          "internalType": "uint256",
          "name": "price",
          "type": "uint256"
        }
      ],
      "name": "AssetBorrowed",
      "type": "event"
    },
    {
      "anonymous": false,
      "inputs": [
        {
          "indexed": true,
          "internalType": "address",
          "name": "user",
          "type": "address"
        },
        {
          "indexed": true,
          "internalType": "uint256",
          "name": "amount",
          "type": "uint256"
        },
        {
          "indexed": false,
          "internalType": "uint256",
          "name": "price",
          "type": "uint256"
        }
      ],
      "name": "AssetRepaid",
      "type": "event"
    },
    {
      "anonymous": false,
      "inputs": [
        {
          "indexed": true,
          "internalType": "address",
          "name": "user",
          "type": "address"
        },
        {
          "indexed": true,
          "internalType": "uint256",
          "name": "amount",
          "type": "uint256"
        },
        {
          "indexed": false,
          "internalType": "uint256",
          "name": "price",
          "type": "uint256"
        }
      ],
      "name": "CollateralAdded",
      "type": "event"
    },
    {
      "anonymous": false,
      "inputs": [
        {
          "indexed": true,
          "internalType": "address",
          "name": "user",
          "type": "address"
        },
        {
          "indexed": true,
          "internalType": "uint256",
          "name": "amount",
          "type": "uint256"
        },
        {
          "indexed": false,
          "internalType": "uint256",
          "name": "price",
          "type": "uint256"
        }
      ],
      "name": "CollateralWithdrawn",
      "type": "event"
    },
    {
      "anonymous": false,
      "inputs": [
        {
          "indexed": true,
          "internalType": "address",
          "name": "user",
          "type": "address"
        },
        {
          "indexed": true,
          "internalType": "address",
          "name": "liquidator",
          "type": "address"
        },
        {
          "indexed": false,
          "internalType": "uint256",
          "name": "amountForLiquidator",
          "type": "uint256"
        },
        {
          "indexed": false,
          "internalType": "uint256",
          "name": "liquidatedUserDebt",
          "type": "uint256"
        },
        {
          "indexed": false,
          "internalType": "uint256",
          "name": "price",
          "type": "uint256"
        }
      ],
      "name": "Liquidation",
      "type": "event"
    },
    {
      "anonymous": false,
      "inputs": [
        {
          "indexed": true,
          "internalType": "address",
          "name": "previousOwner",
          "type": "address"
        },
        {
          "indexed": true,
          "internalType": "address",
          "name": "newOwner",
          "type": "address"
        }
      ],
      "name": "OwnershipTransferred",
      "type": "event"
    },
    {
      "anonymous": false,
      "inputs": [
        {
          "indexed": false,
          "internalType": "address",
          "name": "account",
          "type": "address"
        }
      ],
      "name": "Paused",
      "type": "event"
    },
    {
      "anonymous": false,
      "inputs": [
        {
          "indexed": false,
          "internalType": "address",
          "name": "account",
          "type": "address"
        }
      ],
      "name": "Unpaused",
      "type": "event"
    },
    {
      "inputs": [],
      "name": "addCollateral",
      "outputs": [],
      "stateMutability": "payable",
      "type": "function"
    },
    {
      "inputs": [
        {
          "internalType": "uint256",
          "name": "borrowAmount",
          "type": "uint256"
        }
      ],
      "name": "borrowOracle",
      "outputs": [],
      "stateMutability": "nonpayable",
      "type": "function"
    },
    {
      "inputs": [
        {
          "internalType": "uint256",
          "name": "collateralAmount",
          "type": "uint256"
        }
      ],
      "name": "calculateCollateralValue",
      "outputs": [
        {
          "internalType": "uint256",
          "name": "value",
          "type": "uint256"
        }
      ],
      "stateMutability": "view",
      "type": "function"
    },
    {
      "inputs": [],
      "name": "dex",
      "outputs": [
        {
          "internalType": "contract IDEX",
          "name": "",
          "type": "address"
        }
      ],
      "stateMutability": "view",
      "type": "function"
    },
    {
      "inputs": [
        {
          "internalType": "uint256",
          "name": "amount",
          "type": "uint256"
        }
      ],
      "name": "emergencyWithdrawETH",
      "outputs": [],
      "stateMutability": "nonpayable",
      "type": "function"
    },
    {
      "inputs": [
        {
          "internalType": "uint256",
          "name": "amount",
          "type": "uint256"
        }
      ],
      "name": "emergencyWithdrawOracle",
      "outputs": [],
      "stateMutability": "nonpayable",
      "type": "function"
    },
    {
      "inputs": [
        {
          "internalType": "uint256",
          "name": "amount",
          "type": "uint256"
        }
      ],
      "name": "fundContract",
      "outputs": [],
      "stateMutability": "nonpayable",
      "type": "function"
    },
    {
      "inputs": [],
      "name": "getContractETHBalance",
      "outputs": [
        {
          "internalType": "uint256",
          "name": "balance",
          "type": "uint256"
        }
      ],
      "stateMutability": "view",
      "type": "function"
    },
    {
      "inputs": [],
      "name": "getContractOracleBalance",
      "outputs": [
        {
          "internalType": "uint256",
          "name": "balance",
          "type": "uint256"
        }
      ],
      "stateMutability": "view",
      "type": "function"
    },
    {
      "inputs": [],
      "name": "getCurrentPrice",
      "outputs": [
        {
          "internalType": "uint256",
          "name": "price",
          "type": "uint256"
        }
      ],
      "stateMutability": "view",
      "type": "function"
    },
    {
      "inputs": [
        {
          "internalType": "address",
          "name": "user",
          "type": "address"
        }
      ],
      "name": "getHealthRatio",
      "outputs": [
        {
          "internalType": "uint256",
          "name": "ratio",
          "type": "uint256"
        }
      ],
      "stateMutability": "view",
      "type": "function"
    },
    {
      "inputs": [
        {
          "internalType": "address",
          "name": "user",
          "type": "address"
        }
      ],
      "name": "getMaxBorrowAmount",
      "outputs": [
        {
          "internalType": "uint256",
          "name": "maxBorrow",
          "type": "uint256"
        }
      ],
      "stateMutability": "view",
      "type": "function"
    },
    {
      "inputs": [
        {
          "internalType": "address",
          "name": "user",
          "type": "address"
        }
      ],
      "name": "getMaxWithdrawableCollateral",
      "outputs": [
        {
          "internalType": "uint256",
          "name": "maxWithdraw",
          "type": "uint256"
        }
      ],
      "stateMutability": "view",
      "type": "function"
    },
    {
      "inputs": [
        {
          "internalType": "address",
          "name": "user",
          "type": "address"
        }
      ],
      "name": "getUserPosition",
      "outputs": [
        {
          "internalType": "uint256",
          "name": "collateral",
          "type": "uint256"
        },
        {
          "internalType": "uint256",
          "name": "borrowed",
          "type": "uint256"
        },
        {
          "internalType": "uint256",
          "name": "collateralValue",
          "type": "uint256"
        },
        {
          "internalType": "uint256",
          "name": "healthRatio",
          "type": "uint256"
        },
        {
          "internalType": "bool",
          "name": "liquidatable",
          "type": "bool"
        }
      ],
      "stateMutability": "view",
      "type": "function"
    },
    {
      "inputs": [
        {
          "internalType": "address",
          "name": "user",
          "type": "address"
        }
      ],
      "name": "isLiquidatable",
      "outputs": [
        {
          "internalType": "bool",
          "name": "liquidatable",
          "type": "bool"
        }
      ],
      "stateMutability": "view",
      "type": "function"
    },
    {
      "inputs": [
        {
          "internalType": "address",
          "name": "user",
          "type": "address"
        }
      ],
      "name": "liquidate",
      "outputs": [],
      "stateMutability": "nonpayable",
      "type": "function"
    },
    {
      "inputs": [],
      "name": "oracleToken",
      "outputs": [
        {
          "internalType": "contract IERC20",
          "name": "",
          "type": "address"
        }
      ],
      "stateMutability": "view",
      "type": "function"
    },
    {
      "inputs": [],
      "name": "owner",
      "outputs": [
        {
          "internalType": "address",
          "name": "",
          "type": "address"
        }
      ],
      "stateMutability": "view",
      "type": "function"
    },
    {
      "inputs": [],
      "name": "pause",
      "outputs": [],
      "stateMutability": "nonpayable",
      "type": "function"
    },
    {
      "inputs": [],
      "name": "paused",
      "outputs": [
        {
          "internalType": "bool",
          "name": "",
          "type": "bool"
        }
      ],
      "stateMutability": "view",
      "type": "function"
    },
    {
      "inputs": [],
      "name": "renounceOwnership",
      "outputs": [],
      "stateMutability": "nonpayable",
      "type": "function"
    },
    {
      "inputs": [
        {
          "internalType": "uint256",
          "name": "repayAmount",
          "type": "uint256"
        }
      ],
      "name": "repayOracle",
      "outputs": [],
      "stateMutability": "nonpayable",
      "type": "function"
    },
    {
      "inputs": [
        {
          "internalType": "address",
          "name": "newOwner",
          "type": "address"
        }
      ],
      "name": "transferOwnership",
      "outputs": [],
      "stateMutability": "nonpayable",
      "type": "function"
    },
    {
      "inputs": [],
      "name": "unpause",
      "outputs": [],
      "stateMutability": "nonpayable",
      "type": "function"
    },
    {
      "inputs": [
        {
          "internalType": "address",
          "name": "",
          "type": "address"
        }
      ],
      "name": "userBorrowed",
      "outputs": [
        {
          "internalType": "uint256",
          "name": "",
          "type": "uint256"
        }
      ],
      "stateMutability": "view",
      "type": "function"
    },
    {
      "inputs": [
        {
          "internalType": "address",
          "name": "",
          "type": "address"
        }
      ],
      "name": "userCollateral",
      "outputs": [
        {
          "internalType": "uint256",
          "name": "",
          "type": "uint256"
        }
      ],
      "stateMutability": "view",
      "type": "function"
    },
    {
      "inputs": [
        {
          "internalType": "uint256",
          "name": "amount",
          "type": "uint256"
        }
      ],
      "name": "withdrawCollateral",
      "outputs": [],
      "stateMutability": "nonpayable",
      "type": "function"
    },
    {
      "stateMutability": "payable",
      "type": "receive"
    }
  ],
  "transactionHash": "0x824254f4ed5e7f6249312b2ba3db203884cdb3849e8a5bdf5390bf8ac00d6d9f",
  "args": [
    "0x216cCe003Be533D11Fd4B6d87F066Eef48B42568",
    "0x1AA6ad0A70Dd90796F2936BD11F0d4DEF7553b04"
  ],
  "numDeployments": 1,
  "solcInputHash": "c8b93e15ab5bae41e27b56a84ef8415e",
  "bytecode": "0x60c06040523480156200001157600080fd5b5060405162001ecc38038062001ecc8339810160408190526200003491620001ce565b33806200005c57604051631e4fbdf760e01b8152600060048201526024015b60405180910390fd5b620000678162000161565b50600180556002805460ff191690556001600160a01b038216158015906200009757506001600160a01b03811615155b620000d95760405162461bcd60e51b8152602060048201526011602482015270496e76616c69642061646472657373657360781b604482015260640162000053565b6001600160a01b0382811660a0528116608081905260405163095ea7b360e01b8152306004820152600019602482015263095ea7b3906044016020604051808303816000875af115801562000132573d6000803e3d6000fd5b505050506040513d601f19601f8201168201806040525081019062000158919062000206565b50505062000231565b600080546001600160a01b038381166001600160a01b0319831681178455604051919092169283917f8be0079c531659141344cd1fd0a4f28419497f9722a3daafe3b4186f6b6457e09190a35050565b80516001600160a01b0381168114620001c957600080fd5b919050565b60008060408385031215620001e257600080fd5b620001ed83620001b1565b9150620001fd60208401620001b1565b90509250929050565b6000602082840312156200021957600080fd5b815180151581146200022a57600080fd5b9392505050565b60805160a051611c21620002ab600039600081816103d5015281816105b9015281816105e8015281816106d001526107560152600081816104560152818161091401528181610a1301528181610aca01528181610d0301528181610e0401528181610f170152818161109f015261163d0152611c216000f3fe6080604052600436106101a05760003560e01c80636b792c4b116100ec5780639a7d78131161008a578063eb91d37e11610064578063eb91d37e14610533578063f2fde38b14610548578063f5f2cd9114610568578063f69f1e4a1461058857600080fd5b80639a7d7813146104de5780639e8169991461050b578063d930a7131461051357600080fd5b80638456cb59116100c65780638456cb59146104785780638c89a0ad1461048d5780638da5cb5b146104a05780639210ae64146104be57600080fd5b80636b792c4b1461040f578063715018a61461042f57806383472fcf1461044457600080fd5b80634b79cb0f116101595780635b7c2dad116101335780635b7c2dad146103415780635c975abb1461038b5780636112fe2e146103a3578063692058c2146103c357600080fd5b80634b79cb0f146102e15780635a7389d0146103015780635ad123731461032157600080fd5b8063042e02cf1461021457806306f8b0051461024957806322c84fdf146102775780632f8655681461028c5780633519a2f8146102ac5780633f4ba83a146102cc57600080fd5b3661020f57341561020d5733600090815260036020526040812080543492906101ca908490611aba565b90915550349050337f11f8990ac38271f23dea447d5728e9914fca7cea2edda43af6c43c415f8bc30b6101fb6105b5565b60405190815260200160405180910390a35b005b600080fd5b34801561022057600080fd5b5061023461022f366004611ae2565b61081f565b60405190151581526020015b60405180910390f35b34801561025557600080fd5b50610269610264366004611ae2565b610890565b604051908152602001610240565b34801561028357600080fd5b506102696108fc565b34801561029857600080fd5b5061020d6102a7366004611ae2565b61098c565b3480156102b857600080fd5b5061020d6102c7366004611aff565b610cee565b3480156102d857600080fd5b5061020d610d2b565b3480156102ed57600080fd5b506102696102fc366004611ae2565b610d3d565b34801561030d57600080fd5b5061020d61031c366004611aff565b610dbc565b34801561032d57600080fd5b5061020d61033c366004611aff565b611018565b34801561034d57600080fd5b5061036161035c366004611ae2565b611198565b6040805195865260208601949094529284019190915260608301521515608082015260a001610240565b34801561039757600080fd5b5060025460ff16610234565b3480156103af57600080fd5b5061020d6103be366004611aff565b611207565b3480156103cf57600080fd5b506103f77f000000000000000000000000000000000000000000000000000000000000000081565b6040516001600160a01b039091168152602001610240565b34801561041b57600080fd5b5061020d61042a366004611aff565b611391565b34801561043b57600080fd5b5061020d611486565b34801561045057600080fd5b506103f77f000000000000000000000000000000000000000000000000000000000000000081565b34801561048457600080fd5b5061020d611498565b34801561049957600080fd5b5047610269565b3480156104ac57600080fd5b506000546001600160a01b03166103f7565b3480156104ca57600080fd5b506102696104d9366004611ae2565b6114a8565b3480156104ea57600080fd5b506102696104f9366004611ae2565b60046020526000908152604090205481565b61020d61157b565b34801561051f57600080fd5b5061020d61052e366004611aff565b611616565b34801561053f57600080fd5b506102696105b5565b34801561055457600080fd5b5061020d610563366004611ae2565b611664565b34801561057457600080fd5b50610269610583366004611aff565b61169f565b34801561059457600080fd5b506102696105a3366004611ae2565b60036020526000908152604090205481565b60007f00000000000000000000000000000000000000000000000000000000000000006001600160a01b03166341976e097f00000000000000000000000000000000000000000000000000000000000000006001600160a01b031663a7be29ba6040518163ffffffff1660e01b8152600401602060405180830381865afa158015610644573d6000803e3d6000fd5b505050506040513d601f19601f820116820180604052508101906106689190611b18565b6040516001600160e01b031960e084901b1681526001600160a01b039091166004820152602401602060405180830381865afa9250505080156106c8575060408051601f3d908101601f191682019092526106c591810190611b35565b60015b61081a5760007f00000000000000000000000000000000000000000000000000000000000000006001600160a01b0316631baddaa36040518163ffffffff1660e01b8152600401602060405180830381865afa15801561072c573d6000803e3d6000fd5b505050506040513d601f19601f820116820180604052508101906107509190611b35565b905060007f00000000000000000000000000000000000000000000000000000000000000006001600160a01b031663da6648a86040518163ffffffff1660e01b8152600401602060405180830381865afa1580156107b2573d6000803e3d6000fd5b505050506040513d601f19601f820116820180604052508101906107d69190611b35565b90506000821180156107e85750600081115b15610811578161080082670de0b6b3a7640000611b4e565b61080a9190611b65565b9250505090565b60009250505090565b919050565b6001600160a01b0381166000908152600460205260408120548082036108485750600092915050565b6001600160a01b03831660009081526003602052604081205461086a9061169f565b905060008261087a836064611b4e565b6108849190611b65565b60781195945050505050565b6001600160a01b0381166000908152600460205260408120548082036108ba575060001992915050565b6001600160a01b0383166000908152600360205260408120546108dc9061169f565b9050816108ea826064611b4e565b6108f49190611b65565b949350505050565b6040516370a0823160e01b81523060048201526000907f00000000000000000000000000000000000000000000000000000000000000006001600160a01b0316906370a0823190602401602060405180830381865afa158015610963573d6000803e3d6000fd5b505050506040513d601f19601f820116820180604052508101906109879190611b35565b905090565b6109946116d0565b61099c6116fa565b6109a58161081f565b6109c2576040516398e9cff360e01b815260040160405180910390fd5b6001600160a01b038116600090815260046020526040812054908190036109fc576040516398e9cff360e01b815260040160405180910390fd5b6040516370a0823160e01b815233600482015281907f00000000000000000000000000000000000000000000000000000000000000006001600160a01b0316906370a0823190602401602060405180830381865afa158015610a62573d6000803e3d6000fd5b505050506040513d601f19601f82011682018060405250810190610a869190611b35565b1015610aa557604051637d7654fd60e01b815260040160405180910390fd5b6040516323b872dd60e01b8152336004820152306024820152604481018290526000907f00000000000000000000000000000000000000000000000000000000000000006001600160a01b0316906323b872dd906064016020604051808303816000875af1158015610b1b573d6000803e3d6000fd5b505050506040513d601f19601f82011682018060405250810190610b3f9190611b87565b905080610b5f57604051633689d8bf60e01b815260040160405180910390fd5b6001600160a01b03831660009081526003602052604081205490610b828261169f565b6001600160a01b0386166000908152600460205260408120819055909150818103610bae575081610bc6565b81610bb98487611b4e565b610bc39190611b65565b90505b60006064610bd5600a84611b4e565b610bdf9190611b65565b90506000610bed8284611aba565b905084811115610bfa5750835b610c048186611ba9565b6001600160a01b038916600090815260036020526040808220929092559051339083908381818185875af1925050503d8060008114610c5f576040519150601f19603f3d011682016040523d82523d6000602084013e610c64565b606091505b5050905080610c8657604051632b3f901b60e21b815260040160405180910390fd5b336001600160a01b038a167f5a821a618ddb1a1fd304234a69c9d7f20c129d122fcf35593d13a07192664307848b610cbc6105b5565b6040805193845260208401929092529082015260600160405180910390a35050505050505050610ceb60018055565b50565b610cf661171e565b610ceb6001600160a01b037f00000000000000000000000000000000000000000000000000000000000000001633308461174b565b610d3361171e565b610d3b6117b8565b565b6001600160a01b0381166000908152600360205260408120548190610d619061169f565b6001600160a01b0384166000908152600460205260408120549192506078610d8a846064611b4e565b610d949190611b65565b905081811115610db157610da88282611ba9565b95945050505050565b506000949350505050565b610dc46116d0565b610dcc6116fa565b80600003610ded576040516370005ec360e11b815260040160405180910390fd5b6040516370a0823160e01b815230600482015281907f00000000000000000000000000000000000000000000000000000000000000006001600160a01b0316906370a0823190602401602060405180830381865afa158015610e53573d6000803e3d6000fd5b505050506040513d601f19601f82011682018060405250810190610e779190611b35565b1015610eca5760405162461bcd60e51b815260206004820152601d60248201527f496e73756666696369656e74204f5241434c45206c697175696469747900000060448201526064015b60405180910390fd5b3360009081526004602052604081208054839290610ee9908490611aba565b90915550610ef890503361180a565b60405163a9059cbb60e01b8152336004820152602481018290526000907f00000000000000000000000000000000000000000000000000000000000000006001600160a01b03169063a9059cbb906044016020604051808303816000875af1158015610f68573d6000803e3d6000fd5b505050506040513d601f19601f82011682018060405250810190610f8c9190611b87565b905080610fd2573360009081526004602052604081208054849290610fb2908490611ba9565b92505081905550604051631e09f18560e01b815260040160405180910390fd5b81337f6c8250ea4d625c09ee567802242f70b37c9dcfdb10a904563781c1ed7663c7cc610ffd6105b5565b60405190815260200160405180910390a350610ceb60018055565b6110206116d0565b6110286116fa565b80600003611049576040516370005ec360e11b815260040160405180910390fd5b336000908152600460205260409020548082111561107a576040516370005ec360e11b815260040160405180910390fd5b6040516323b872dd60e01b8152336004820152306024820152604481018390526000907f00000000000000000000000000000000000000000000000000000000000000006001600160a01b0316906323b872dd906064016020604051808303816000875af11580156110f0573d6000803e3d6000fd5b505050506040513d601f19601f820116820180604052508101906111149190611b87565b90508061113457604051633689d8bf60e01b815260040160405180910390fd5b61113e8383611ba9565b3360008181526004602052604090209190915583907fc1afad9537411d7ba4a74e9ee309d18f26f72ee1bfc63647b61e9bca0eec322c61117c6105b5565b60405190815260200160405180910390a35050610ceb60018055565b6001600160a01b0381166000908152600360209081526040808320546004909252822054909180806111c98561169f565b9250836000036111e05750600019905060006111fe565b836111ec846064611b4e565b6111f69190611b65565b915050607881105b91939590929450565b61120f6116d0565b6112176116fa565b80158061123257503360009081526003602052604090205481115b15611250576040516370005ec360e11b815260040160405180910390fd5b336000908152600360205260408120549061126b8383611ba9565b3360009081526004602052604090205490915080156112d057600061128f8361169f565b905060008261129f836064611b4e565b6112a99190611b65565b905060788110156112cd5760405163773c31dd60e01b815260040160405180910390fd5b50505b336000818152600360205260408082208590555190919086908381818185875af1925050503d8060008114611321576040519150601f19603f3d011682016040523d82523d6000602084013e611326565b606091505b505090508061134857604051632b3f901b60e21b815260040160405180910390fd5b84337fdaed309a628faec6cab72194019e2a1a34e890ca9bf9be99788992dd546928196113736105b5565b60405190815260200160405180910390a350505050610ceb60018055565b61139961171e565b804710156113e95760405162461bcd60e51b815260206004820152601860248201527f496e73756666696369656e74204554482062616c616e636500000000000000006044820152606401610ec1565b600080546040516001600160a01b039091169083908381818185875af1925050503d8060008114611436576040519150601f19603f3d011682016040523d82523d6000602084013e61143b565b606091505b50509050806114825760405162461bcd60e51b8152602060048201526013602482015272115512081d1c985b9cd9995c8819985a5b1959606a1b6044820152606401610ec1565b5050565b61148e61171e565b610d3b6000611831565b6114a061171e565b610d3b611881565b6001600160a01b0381166000908152600460205260408120548082036114e55750506001600160a01b031660009081526003602052604090205490565b60006114ef6105b5565b905080600003611503575060009392505050565b6000611510826064611b4e565b61151b607885611b4e565b61152d90670de0b6b3a7640000611b4e565b6115379190611b65565b6001600160a01b0386166000908152600360205260409020549091508181111561156f576115658282611ba9565b9695505050505050565b50600095945050505050565b6115836116d0565b61158b6116fa565b346000036115ac576040516370005ec360e11b815260040160405180910390fd5b33600090815260036020526040812080543492906115cb908490611aba565b90915550349050337f11f8990ac38271f23dea447d5728e9914fca7cea2edda43af6c43c415f8bc30b6115fc6105b5565b60405190815260200160405180910390a3610d3b60018055565b61161e61171e565b610ceb6116336000546001600160a01b031690565b6001600160a01b037f00000000000000000000000000000000000000000000000000000000000000001690836118be565b61166c61171e565b6001600160a01b03811661169657604051631e4fbdf760e01b815260006004820152602401610ec1565b610ceb81611831565b6000806116aa6105b5565b9050670de0b6b3a76400006116bf8285611b4e565b6116c99190611b65565b9392505050565b6002600154036116f357604051633ee5aeb560e01b815260040160405180910390fd5b6002600155565b60025460ff1615610d3b5760405163d93c066560e01b815260040160405180910390fd5b6000546001600160a01b03163314610d3b5760405163118cdaa760e01b8152336004820152602401610ec1565b6040516001600160a01b0384811660248301528381166044830152606482018390526117b29186918216906323b872dd906084015b604051602081830303815290604052915060e01b6020820180516001600160e01b0383818316178352505050506118f4565b50505050565b6117c0611957565b6002805460ff191690557f5db9ee0a495bf2e6ff9c91a7834c1ba4fdd244a5e8aa4e537bd38aeae4b073aa335b6040516001600160a01b03909116815260200160405180910390a1565b6118138161081f565b15610ceb5760405163773c31dd60e01b815260040160405180910390fd5b600080546001600160a01b038381166001600160a01b0319831681178455604051919092169283917f8be0079c531659141344cd1fd0a4f28419497f9722a3daafe3b4186f6b6457e09190a35050565b6118896116fa565b6002805460ff191660011790557f62e78cea01bee320cd4e420270b5ea74000d11b0c9f74754ebdbfc544b05a2586117ed3390565b6040516001600160a01b038381166024830152604482018390526118ef91859182169063a9059cbb90606401611780565b505050565b60006119096001600160a01b0384168361197a565b9050805160001415801561192e57508080602001905181019061192c9190611b87565b155b156118ef57604051635274afe760e01b81526001600160a01b0384166004820152602401610ec1565b60025460ff16610d3b57604051638dfc202b60e01b815260040160405180910390fd5b606061198883836000611991565b90505b92915050565b6060814710156119b65760405163cd78605960e01b8152306004820152602401610ec1565b600080856001600160a01b031684866040516119d29190611bbc565b60006040518083038185875af1925050503d8060008114611a0f576040519150601f19603f3d011682016040523d82523d6000602084013e611a14565b606091505b5091509150611565868383606082611a3457611a2f82611a7b565b6116c9565b8151158015611a4b57506001600160a01b0384163b155b15611a7457604051639996b31560e01b81526001600160a01b0385166004820152602401610ec1565b50806116c9565b805115611a8b5780518082602001fd5b604051630a12f52160e11b815260040160405180910390fd5b634e487b7160e01b600052601160045260246000fd5b8082018082111561198b5761198b611aa4565b6001600160a01b0381168114610ceb57600080fd5b600060208284031215611af457600080fd5b81356116c981611acd565b600060208284031215611b1157600080fd5b5035919050565b600060208284031215611b2a57600080fd5b81516116c981611acd565b600060208284031215611b4757600080fd5b5051919050565b808202811582820484141761198b5761198b611aa4565b600082611b8257634e487b7160e01b600052601260045260246000fd5b500490565b600060208284031215611b9957600080fd5b815180151581146116c957600080fd5b8181038181111561198b5761198b611aa4565b6000825160005b81811015611bdd5760208186018101518583015201611bc3565b50600092019182525091905056fea264697066735822122011f89ac48b7529ada0c7d937b9e1554358cf4ddb88b82ec0f2e70d3deca8aa2164736f6c63430008140033",
  "devdoc": {
    "details": "Over-collateralized lending protocol using ETH as collateral and ORACLE as borrowable asset",
    "errors": {
      "AddressEmptyCode(address)": [
        {
          "details": "There's no code at `target` (it is not a contract)."
        }
      ],
      "AddressInsufficientBalance(address)": [
        {
          "details": "The ETH balance of the account is not enough to perform the operation."
        }
      ],
      "EnforcedPause()": [
        {
          "details": "The operation failed because the contract is paused."
        }
      ],
      "ExpectedPause()": [
        {
          "details": "The operation failed because the contract is not paused."
        }
      ],
      "FailedInnerCall()": [
        {
          "details": "A call to an address target failed. The target may have reverted."
        }
      ],
      "OwnableInvalidOwner(address)": [
        {
          "details": "The owner is not a valid owner account. (eg. `address(0)`)"
        }
      ],
      "OwnableUnauthorizedAccount(address)": [
        {
          "details": "The caller account is not authorized to perform an operation."
        }
      ],
      "ReentrancyGuardReentrantCall()": [
        {
          "details": "Unauthorized reentrant call."
        }
      ],
      "SafeERC20FailedOperation(address)": [
        {
          "details": "An operation with an ERC20 token failed."
        }
      ]
    },
    "events": {
      "Paused(address)": {
        "details": "Emitted when the pause is triggered by `account`."
      },
      "Unpaused(address)": {
        "details": "Emitted when the pause is lifted by `account`."
      }
    },
    "kind": "dev",
    "methods": {
      "addCollateral()": {
        "details": "Users send ETH which is stored as collateral for borrowing ORACLE tokens"
      },
      "borrowOracle(uint256)": {
        "params": {
          "borrowAmount": "Amount of ORACLE tokens to borrow (18 decimals)"
        }
      },
      "calculateCollateralValue(uint256)": {
        "params": {
          "collateralAmount": "ETH collateral amount in wei"
        },
        "returns": {
          "value": "Collateral value in ORACLE tokens (18 decimals)"
        }
      },
      "emergencyWithdrawETH(uint256)": {
        "params": {
          "amount": "Amount of ETH to withdraw"
        }
      },
      "emergencyWithdrawOracle(uint256)": {
        "params": {
          "amount": "Amount of ORACLE tokens to withdraw"
        }
      },
      "fundContract(uint256)": {
        "params": {
          "amount": "Amount of ORACLE tokens to add"
        }
      },
      "getContractETHBalance()": {
        "returns": {
          "balance": "Available ETH balance"
        }
      },
      "getContractOracleBalance()": {
        "returns": {
          "balance": "Available ORACLE tokens for lending"
        }
      },
      "getCurrentPrice()": {
        "returns": {
          "price": "ORACLE per 1 ETH (18 decimals)"
        }
      },
      "getHealthRatio(address)": {
        "params": {
          "user": "Address to check"
        },
        "returns": {
          "ratio": "Health ratio as percentage (120 = 120%)"
        }
      },
      "getMaxBorrowAmount(address)": {
        "params": {
          "user": "Address to check"
        },
        "returns": {
          "maxBorrow": "Maximum borrowable amount"
        }
      },
      "getMaxWithdrawableCollateral(address)": {
        "params": {
          "user": "Address to check  "
        },
        "returns": {
          "maxWithdraw": "Maximum withdrawable ETH amount"
        }
      },
      "getUserPosition(address)": {
        "params": {
          "user": "Address to check"
        },
        "returns": {
          "borrowed": "ORACLE debt amount  ",
          "collateral": "ETH collateral amount",
          "collateralValue": "Collateral value in ORACLE",
          "healthRatio": "Health ratio percentage",
          "liquidatable": "Whether position can be liquidated"
        }
      },
      "isLiquidatable(address)": {
        "params": {
          "user": "Address to check"
        },
        "returns": {
          "liquidatable": "True if position can be liquidated"
        }
      },
      "liquidate(address)": {
        "details": "Liquidator must approve ORACLE tokens to this contract first",
        "params": {
          "user": "Address of the user to liquidate"
        }
      },
      "owner()": {
        "details": "Returns the address of the current owner."
      },
      "paused()": {
        "details": "Returns true if the contract is paused, and false otherwise."
      },
      "renounceOwnership()": {
        "details": "Leaves the contract without owner. It will not be possible to call `onlyOwner` functions. Can only be called by the current owner. NOTE: Renouncing ownership will leave the contract without an owner, thereby disabling any functionality that is only available to the owner."
      },
      "repayOracle(uint256)": {
        "params": {
          "repayAmount": "Amount of ORACLE tokens to repay (user must approve first)"
        }
      },
      "transferOwnership(address)": {
        "details": "Transfers ownership of the contract to a new account (`newOwner`). Can only be called by the current owner."
      },
      "withdrawCollateral(uint256)": {
        "params": {
          "amount": "Amount of ETH to withdraw in wei"
        }
      }
    },
    "title": "OracleLend",
    "version": 1
  },
  "userdoc": {
    "kind": "user",
    "methods": {
      "addCollateral()": {
        "notice": "Deposit ETH as collateral"
      },
      "borrowOracle(uint256)": {
        "notice": "Borrow ORACLE tokens against ETH collateral"
      },
      "calculateCollateralValue(uint256)": {
        "notice": "Calculate collateral value in ORACLE terms"
      },
      "emergencyWithdrawETH(uint256)": {
        "notice": "Emergency withdrawal of ETH (only owner)"
      },
      "emergencyWithdrawOracle(uint256)": {
        "notice": "Emergency withdrawal of ORACLE tokens (only owner)"
      },
      "fundContract(uint256)": {
        "notice": "Fund the contract with ORACLE tokens for lending"
      },
      "getContractETHBalance()": {
        "notice": "Get contract's ETH balance"
      },
      "getContractOracleBalance()": {
        "notice": "Get contract's ORACLE token balance"
      },
      "getCurrentPrice()": {
        "notice": "Get current ORACLE price in terms of ETH from DEX"
      },
      "getHealthRatio(address)": {
        "notice": "Get user's position health ratio (percentage)"
      },
      "getMaxBorrowAmount(address)": {
        "notice": "Get maximum ORACLE amount a user can borrow"
      },
      "getMaxWithdrawableCollateral(address)": {
        "notice": "Get maximum ETH collateral a user can withdraw"
      },
      "getUserPosition(address)": {
        "notice": "Get user's complete position info"
      },
      "isLiquidatable(address)": {
        "notice": "Check if a position is liquidatable (health ratio < 120%)"
      },
      "liquidate(address)": {
        "notice": "Liquidate an unsafe position"
      },
      "pause()": {
        "notice": "Pause the protocol (emergency stop)"
      },
      "repayOracle(uint256)": {
        "notice": "Repay ORACLE token debt"
      },
      "unpause()": {
        "notice": "Unpause the protocol"
      },
      "withdrawCollateral(uint256)": {
        "notice": "Withdraw ETH collateral (if position remains healthy)"
      }
    },
    "notice": "Based on SpeedRunEthereum lending challenge - uses DEX for price discovery",
    "version": 1
  },
  "storageLayout": {
    "storage": [
      {
        "astId": 8,
        "contract": "contracts/OracleLend.sol:OracleLend",
        "label": "_owner",
        "offset": 0,
        "slot": "0",
        "type": "t_address"
      },
      {
        "astId": 1640,
        "contract": "contracts/OracleLend.sol:OracleLend",
        "label": "_status",
        "offset": 0,
        "slot": "1",
        "type": "t_uint256"
      },
      {
        "astId": 1521,
        "contract": "contracts/OracleLend.sol:OracleLend",
        "label": "_paused",
        "offset": 0,
        "slot": "2",
        "type": "t_bool"
      },
      {
        "astId": 2932,
        "contract": "contracts/OracleLend.sol:OracleLend",
        "label": "userCollateral",
        "offset": 0,
        "slot": "3",
        "type": "t_mapping(t_address,t_uint256)"
      },
      {
        "astId": 2936,
        "contract": "contracts/OracleLend.sol:OracleLend",
        "label": "userBorrowed",
        "offset": 0,
        "slot": "4",
        "type": "t_mapping(t_address,t_uint256)"
      }
    ],
    "types": {
      "t_address": {
        "encoding": "inplace",
        "label": "address",
        "numberOfBytes": "20"
      },
      "t_bool": {
        "encoding": "inplace",
        "label": "bool",
        "numberOfBytes": "1"
      },
      "t_mapping(t_address,t_uint256)": {
        "encoding": "mapping",
        "key": "t_address",
        "label": "mapping(address => uint256)",
        "numberOfBytes": "32",
        "value": "t_uint256"
      },
      "t_uint256": {
        "encoding": "inplace",
        "label": "uint256",
        "numberOfBytes": "32"
      }
    }
  }
}